:100000000C945A110C9482110C9482110C9482114C
:100010000C9482110C9482110C9482110C94821114
:100020000C9482110C9482110C9482110C94821104
:100030000C9482110C94B0150C943B150C94821105
:100040000C944D140C9482110C940F140C94E9131D
:100050000C9482110C9471150C9482110C948211E1
:100060000C9497140C94821101000002000003000C
:10007000040005FF00000000000000000100000176
:10008000010101010101010101020101020202025B
:100090000202020203020203030303030303030336
:1000A0000303030303030304040303040404040419
:1000B00004040404040404040504040404050404FE
:1000C00005050505050505050506050506060606DB
:1000D00006060606070606070707070708070708B4
:1000E0000808080808080809090809090909090A87
:1000F0000A0A0A0A0A0A0A0A0B0B0B0B0C0B0B0C56
:100100000C0C0C0C0D0C0D0D0D0D0D0E0E0E0E0F1E
:100110000F0F0F0F100F0F0F1010101011111111E2
:1001200011121112131212131413131414141415A0
:100130001515151616161617171717171818181954
:100140001919191A1A1A1A1A1B1B1B1C1C1C1C1C05
:100150001D1D1D1E1E1E1E1E1F1F1F2020202021B4
:100160002120212222222222232423252525252560
:10017000262626262727272828282828292A292A04
:100180002B2B2B2C2C2C2C2D2E2D2E2F2F2F2F309C
:100190003030303132323233333333333435343537
:1001A0003636363738373739393939393A3B3A3ACA
:1001B0003C3C3C3D3E3D3E3F3F3F3F3F4041414256
:1001C00042424244444444454545454547474747E4
:1001D0004849484A4A4A4A4A4C4C4C4D4D4D4D4F6D
:1001E0004F4F4F50515151515252525454545455F3
:1001F00056555655575757595959595A5A5A5A5C7C
:100200005C5C5C5C5D5D5D5F5F5F5F5F6061616109
:10021000626262626363636565656565666666669C
:100220006767676868686869696969696969696A47
:100230006A6A6A6A6A6A6A6A6B6B6B6B6B6B6B6B16
:100240006C6C6C6C6C6C6C6C6C6C6C6C6D6D6D6DEA
:100250006D6D6D6D6D6D6D6D6D6D6D6D6D6D6D6ECD
:100260006E6E6E6E6E6E6E6E6E6E6E6E6E6E6E6EAE
:100270006E6E6E6E6E6E6E6E6E6E6E6E6E6E6E6E9E
:100280006E6E6E6D6D6D6D6D6D6D6D6D6D6D6D6D9B
:100290006D6D6D6C6C6C6C6C6C6C6C6C6C6C6C6B9C
:1002A0006B6B6B6B6B6B6B6A6A6A6A6A6A6A696AA8
:1002B0006A6A6969696968686868686868686867B7
:1002C00067676766666666656565646564656364D9
:1002D0006464646263626161616161606060605F07
:1002E0005F5F5E5E5E5E5D5D5D5D5C5C5C5C5B5B3E
:1002F0005B5B5A595A595859585857575757565679
:1003000056565555555555545454545353535352AA
:10031000525251505150504F504F4F4E4E4E4D4DE6
:100320004D4D4D4C4C4C4C4B4B4B4A4A4A4949491C
:10033000484847484747464646464645454545445A
:100340004443434243424142414141404040403F97
:100350003F3F3E3E3E3D3D3C3D3C3B3C3B3B3B3AD4
:100360003A3A3A3939383837383737373636363512
:100370003535343434343333333232313231313150
:100380003030302F2F2F2F2E2E2E2D2D2D2C2C2C8C
:100390002B2B2B2A2B2A2A292929292828282827C8
:1003A0002727262626262525252424242423232200
:1003B00023222222222121202020201F1F1F1F1E36
:1003C0001E1E1D1E1D1D1C1D1C1C1B1C1B1B1B1A69
:1003D0001A1A1A1919191819181818171717171798
:1003E00016161615161515151414141414131313C4
:1003F00013121212121212111111111011101010E9
:10040000100F0F0F0F0F0E0E0E0E0E0E0D0D0D0D09
:100410000D0C0C0C0C0C0C0B0B0B0B0B0B0A0A0A27
:100420000A0A0A0A0909090909090808080808083E
:100430000807070707070706060606060606060555
:100440000505050505050504040404040404040366
:100450000303030303030202020202020202020177
:100460000101010101010101000000000000000084
:10047000FF00FFFFFFFFFFFFFFFFFEFEFEFEFEFE91
:10048000FEFEFEFDFEFEFDFDFDFDFDFDFDFDFDFC98
:10049000FDFDFDFDFCFDFDFCFCFCFCFCFCFCFCFB97
:1004A000FCFCFCFCFBFCFCFBFBFBFBFBFBFBFBFB96
:1004B000FBFBFBFBFAFBFAFAFAFAFAFAFAFAFAFA97
:1004C000FAFAF9F9F9FAFAF9F9F9F9F9F9F9F9F998
:1004D000F8F9F8F8F8F8F8F8F7F8F8F7F7F7F7F6A2
:1004E000F7F7F6F6F6F6F6F6F6F6F5F5F5F5F5F4B1
:1004F000F5F5F5F4F4F4F4F4F3F4F3F3F3F3F2F2C2
:10050000F2F2F3F2F2F2F1F1F1F1F0F0F0F0F0EFDB
:10051000F0F0F0EFEFEFEFEEEEEEEDEDEDEDEDECF8
:10052000EDEDECECECECEBEBEBEBEAEAEAEAE9E91B
:10053000E9E9E9E9E8E9E9E8E7E8E8E7E6E7E7E63D
:10054000E5E6E5E4E5E5E4E3E4E4E3E2E3E3E2E170
:10055000E2E1E1E0E0E0DFDFDFDFDEDEDEDEDDDDA9
:10056000DDDDDDDCDCDCDCDBDADBD9D9D9D9D9D8DF
:10057000D8D8D8D7D7D7D7D6D5D6D4D4D4D4D4D31F
:10058000D3D3D3D2D1D2D1D0D0D0D0CFCFCFCFCD63
:10059000CDCDCDCCCCCCCCCBCACACAC9C9C9C9C8AF
:1005A000C7C7C7C6C6C6C6C5C4C4C4C3C3C3C3C100
:1005B000C1C1C1C0BFC0BEBEBEBEBEBDBCBDBCBB56
:1005C000BBBBB9B9B9B9B8B8B8B8B6B6B6B6B5B4B0
:1005D000B5B4B3B3B3B3B3B2B1B1B0B0B0B0B0AE01
:1005E000AEAEADADADADABABABABAAA9AAA9A9A858
:1005F000A8A8A8A6A6A6A6A5A5A5A5A3A3A3A3A2A9
:10060000A2A2A2A0A0A0A09F9F9F9F9D9D9D9C9CF9
:100610009C9C9B9B9B9B9B99999999989898979741
:100620009797979797979796969696959595959568
:10063000959594949494949494949493939393937D
:100640009393939393939292929392929292929283
:10065000929292929292929292929291919191917F
:10066000919191919191919191919191919191917A
:10067000919191919191919191919191919191916A
:100680009191919191919192929292929292929251
:100690009292929292929292939393939393939332
:1006A000939393949494949494949494959494950B
:1006B00095959595959595969696969796969797DE
:1006C00097979798989898999999999A9A9A9A9B9E
:1006D0009A9A9A9B9C9B9C9D9D9D9D9E9E9E9E9E54
:1006E0009F9F9FA0A0A0A0A1A1A1A1A2A2A2A2A4FD
:1006F000A3A4A4A4A5A5A5A6A6A6A6A6A7A7A7A7A2
:10070000A8A8A8A9A9A9A9A9AAAAAAAAABABABAC4F
:10071000ACACADADAEADAEAFAEAFAFB0B0B0B0B0F3
:10072000B1B1B1B2B2B2B2B2B3B3B3B4B4B4B5B59D
:10073000B6B5B6B6B7B7B7B8B8B8B8B9B9B9B9B940
:10074000BABABABBBCBBBCBCBCBDBDBEBDBEBEBEE6
:10075000BFBFBFBFC0C0C0C1C1C1C2C2C2C3C3C48A
:10076000C3C4C4C5C5C5C5C6C6C6C6C7C7C8C8C82C
:10077000C9C8C9CAC9CACACACBCBCBCCCCCCCCCDD0
:10078000CDCDCECECFCECFCFCFD0D0D1D1D1D1D273
:10079000D2D2D3D3D3D3D4D4D5D4D5D5D6D5D6D617
:1007A000D6D7D7D7D8D8D8D8D9D9D9DADADADBDBBF
:1007B000DBDBDCDCDCDCDDDDDDDEDEDEDEDFDFDF67
:1007C000E0E0E0E0E1E1E1E1E2E2E2E2E3E3E3E410
:1007D000E3E4E4E5E4E5E5E5E6E6E6E6E7E7E7E7C2
:1007E000E7E8E8E8E9E9E9E9EAEAEAEAEAEBEBEB73
:1007F000EBEBECECECECEDEDEDEDEDEEEEEEEEEE2C
:10080000EEEFEFEFEFF0F0F0F0F0F1F1F1F1F1F1E8
:10081000F2F2F2F2F2F2F3F3F3F3F3F4F4F4F4F4A9
:10082000F4F4F5F5F5F5F5F5F5F6F6F6F6F6F6F772
:10083000F7F7F7F7F7F8F8F8F8F8F8F8F9F9F9F939
:10084000F9F9F9F9FAFAFAFAFAFAFAFAFBFBFBFB08
:10085000FBFBFBFCFCFCFCFCFCFCFCFDFDFDFDFDD6
:10086000FDFDFDFDFEFEFEFEFEFEFEFEFFFFFFFFA8
:10087000FFFFFF161616171717171718181818184E
:10088000191919191A1A1A1A1A1B1B1B1B1B1B1CC4
:100890001C1C1C1D1D1D1D1E1E1E1E1E1F1F1F1F7E
:1008A0001F2020202020212120212122222222233A
:1008B00023232323242424242425252525252626F3
:1008C00026262626272727272728282828282929B3
:1008D0002929292A2A2A2A2A2B2B2B2B2B2C2C2C70
:1008E0002C2C2D2D2D2D2D2E2E2E2E2E2F2F2F2F2D
:1008F0002F303030303030313131313131323232ED
:1009000032323333333333343434343434353535AD
:100910003535363636363636373737373737373870
:100920003838383839393939393A3A3A3A3A3A3B33
:100930003B3B3B3B3C3C3C3C3C3C3D3D3D3D3D3DF5
:100940003D3E3E3E3E3E3E3F3F3F3F3F3F404040BC
:100950004040404141414141414242424242424382
:100960004343434343444444444444444545454548
:100970004545464646464646464747474747474811
:1009800048484848484949494949494A4A4A4A4AD7
:100990004A4B4B4B4B4B4B4B4C4C4C4C4C4C4C4CA0
:1009A0004D4D4D4D4D4D4E4E4E4E4E4E4E4F4F4F6A
:1009B0004F4F4F4F50505050505051515151515135
:1009C0005151525252525252535353535353535301
:1009D00054545454545454555555555555555656CC
:1009E0005656565656575757575757575758585899
:1009F0005858585859595959595959595A5A5A5A67
:100A00005A5A5A5B5B5B5B5B5B5B5B5C5C5C5C5C34
:100A10005C5C5C5C5D5D5D5D5D5D5D5E5E5E5E5E05
:100A20005E5E5E5E5F5F5F5F5F5F606060606060D4
:100A300060606161616161616161616262626262A3
:100A40006262626262636363636363636364646478
:100A50006464646465656565656565656566666647
:100A60006666666666676767676767676767686819
:100A700068686868686868686868686767676766FC
:100A80006666656564646463636262626161606036
:100A9000605F5F5F5E5E5D5D5D5C5C5C5B5B5A5A88
:100AA0005A595959585858575756565655555454D7
:100AB0005453535352525151515050504F4F4F4E27
:100AC0004E4E4D4D4D4C4C4C4B4B4B4A4A4A49496E
:100AD00048484847474746464645454544444443B9
:100AE00043434242424141414040403F3F3E3E3EFF
:100AF0003D3D3D3D3C3C3C3B3B3B3A3A3A39393944
:100B00003838383737373636363535353534343486
:100B1000333333323232313131313030302F2F2FC5
:100B20002E2E2E2D2D2D2C2C2C2B2B2B2B2A2A2A06
:100B30002929292828282727272626262625252546
:100B40002424242423232322222222212120202082
:100B5000201F1F1F1F1E1E1E1D1D1D1D1C1C1C1BBC
:100B60001B1B1B1A1A1A19191919181818171717F5
:100B7000171616161515151514141414131313122D
:100B8000121212111111101010100F0F0F0F0E0E64
:100B90000E0D0D0D0D0C0C0C0C0B0B0B0B0A0A0A99
:100BA0000A090909080808080707070706060606CC
:100BB00005050505040404030303030202020202FF
:100BC00001010101000000FFFFFFFFFEFEFEFEFD30
:100BD000FDFDFDFDFCFCFCFCFBFBFBFBFAFAFAFA5D
:100BE000F9F9F9F9F8F8F8F8F7F7F7F7F6F6F6F68D
:100BF000F5F5F5F5F5F4F4F4F4F3F3F3F3F3F2F2B9
:100C0000F2F2F1F1F1F1F0F0F0F0EFEFEFEFEEEEE4
:100C1000EEEEEEEDEDEDEDEDECECECECEBEBEBEB0D
:100C2000EBEAEAEAEAE9E9E9E9E8E8E8E8E8E7E737
:100C3000E7E7E7E6E6E6E6E5E5E5E5E5E4E4E4E45E
:100C4000E4E3E3E3E3E3E2E2E2E2E1E1E1E1E1E084
:100C5000E0E0E0E0DFDFDFDFDEDEDEDEDEDDDDDDAB
:100C6000DDDDDCDCDCDCDCDBDBDBDBDBDADADADACF
:100C7000DAD9D9D9D9D9D8D8D8D8D8D7D7D7D7D6F3
:100C8000D6D6D6D6D5D5D5D5D5D4D4D4D4D4D4D318
:100C9000D3D3D3D3D3D2D2D2D2D2D1D1D1D1D1D036
:100CA000D0D0D0D0CFCFCFCFCFCFCECECECECECD57
:100CB000CDCDCDCDCDCCCCCCCCCCCBCBCBCBCBCA76
:100CC000CACACACACAC9C9C9C9C9C9C8C8C8C8C894
:100CD000C8C7C7C7C7C7C6C6C6C6C6C6C5C5C5C5B1
:100CE000C5C5C4C4C4C4C4C3C3C3C3C3C3C2C2C2CE
:100CF000C2C2C2C1C1C1C1C1C1C1C0C0C0C0C0BFE8
:100D0000BFBFBFBFBFBEBEBEBEBEBEBDBDBDBDBD03
:100D1000BDBCBCBCBCBCBCBCBBBBBBBBBBBBBABA1C
:100D2000BABABABAB9B9B9B9B9B9B9B8B8B8B8B834
:100D3000B8B8B7B7B7B7B7B7B7B7B6B6B6B6B6B647
:100D4000B6B6B5B5B5B5B5B5B4B4B4B4B4B4B4B35A
:100D5000B3B3B3B3B3B3B3B3B2B2B2B2B2B2B2B26B
:100D6000B2B2B1B1B1B1B1B1B1B1B1B1B1B1B1B171
:100D7000B0B0B0B0B0B0B0B0B0B0B0B0B0B0B0B073
:100D8000B0B0B0B0B0B0AFAFAFAFAFAFAFAFAFAF6D
:100D9000AFAFAFAFAFAFAFAFB0B0B0B0B0B0B0B05B
:100DA000B0B0B0B0B0B0B0B0B0B0B0B0B0B0B0B043
:100DB000B0B0B1B1B1B1B1B1B1B1B1B1B1B1B1B125
:100DC000B1B2B2B2B2B2B2B2B2B2B2B2B2B3B3B301
:100DD000B3B3B3B3B3B3B3B3B3B4B4B4B4B4B4B4DC
:100DE000B4B4B4B4B5B5B5B5B5B5B5B5B5B5B5B6B6
:100DF000B6B6B6B6B6B6B6B6B6B7B7B7B7B7B7B78C
:100E0000B7B7B7B7B8B8B8B8B8B8B8B8B8B8B8B965
:100E1000B9B9B9B9B9B9B9B9B9B9BABABABABABA3C
:100E2000BABABABABABBBBBBBBBBBBBBBBBBBBBB17
:100E3000BCBCBCBCBCBCBCBCBCBCBCBCBDBDBDBDEE
:100E4000BDBDBDBDBDBDBDBEBEBEBEBEBEBEBEBEC9
:100E5000BEBEBEBFBFBFBFBFBFBFBFBFBFBFBFC0A4
:100E6000C0C0C0C0C0C0C0C0C0C0C1C1C1C1C1C17C
:100E7000C1C1C1C1C1C1C1C2C2C2C2C2C2C2C2C259
:100E8000C2C2C2C3C3C3C3C3C3C3C3C3C3C3C3C434
:100E9000C4C4C4C4C4C4C4C4C4C4C4C4C5C5C5C50E
:100EA000C5C5C5C5C5C5C5C5C5C6C6C6C6C6C6C6EB
:100EB000C6C6C6C6C6C6C6C7C7C7C7C7C7C7C7C7C9
:100EC000C7C7C7C7C8C8C8C8C8C8C8C8C8C8C8C8A6
:100ED000C8C8C9C9C9C9C9C9C9C9C9C9C9C9C9CA83
:100EE000CACACACACACACACACACACACACACACBCB60
:100EF000CBCBCBCBCBCBCBCBCBCBCBCCCCCCCCCC3D
:100F0000CCCCCCCCCCCCCCCCCCCDCDCDCDCDCDCD1A
:100F1000CDCDCDCDCDCDCDCECECECECECECECECEF8
:100F2000CECECECFCFCFCFCFCFCFCFCFCFCFCFD0D3
:100F3000D0D0D0D0D0D0D0D0D0D0D1D1D1D1D1D1AB
:100F4000D1D1D1D1D2D2D2D2D2D2D2D2D3D3D3D381
:100F5000D3D3D3D3D4D4D4D4D4D4D4D5D5D5D5D550
:100F6000D5D6D6D6D6D6D6D7D7D7D7D7D7D8D8D816
:100F7000D8D8D8D9D9D9D9D9DADADADADBDBDBDBD8
:100F8000DBDCDCDCDCDCDDDDDDDDDEDEDEDEDFDF90
:100F9000DFDFE0E0E0E0E0E1E1E1E1E2E2E2E2E344
:100FA000E3E3E4E4E4E4E5E5E5E5E6E6E6E6E7E7F1
:100FB000E7E7E8E8E8E8E9E9E9EAEAEAEAEBEBEB9F
:100FC000EBECECECECEDEDEDEDEEEEEEEFEFEFEF4C
:100FD000F0F0F0F1F1F1F1F2F2F2F2F3F3F3F3F4F5
:100FE000F4F4F4F5F5F5F5F6F6F6F6F7F7F7F8F8A4
:100FF000F8F8F9F9F9F9FAFAFAFAFBFBFBFBFCFC51
:10100000FCFCFDFDFDFEFEFEFEFFFFFFFFFF0000FE
:1010100000000101010102020203030303030404AF
:101020000404050505050606060607070707080860
:101030000808090909090A0A0A0A0B0B0B0B0B0C11
:101040000C0C0C0D0D0D0D0D0E0E0E0E0F0F0F0FC7
:101050000F1010101011111111121212121313137C
:101060001313141414141515151515161616161732
:1010700017171780808080808080808181818181A6
:10108000818181828282828282828282838383833F
:10109000838383848484848484848484858585850F
:1010A00085858586868686868686868787878787DE
:1010B00087878788888888888888888989898989AE
:1010C0008989898A8A8A8A8A8A8A8A8A8B8B8B8B7F
:1010D0008B8B8B8B8C8C8C8C8C8C8C8D8D8D8D8D4F
:1010E0008D8D8D8D8E8E8E8E8E8E8E8F8F8F8F8F1F
:1010F0008F8F8F90909090909090909191919191EE
:1011000091919192929292929292929393939393BD
:10111000939393949494949494949494959595958E
:10112000959595969696969696969696979797975E
:10113000979797979898989898989898999999992F
:10114000999999999A9A9A9A9A9A9A9B9B9B9B9BFE
:101150009B9B9B9B9C9C9C9C9C9C9C9C9D9D9D9DCF
:101160009D9D9D9E9E9E9E9E9E9E9E9F9F9F9F9F9D
:101170009F9F9F9FA0A0A0A0A0A0A0A1A1A1A1A16E
:10118000A1A1A1A2A2A2A2A2A2A2A2A3A3A3A3A33D
:10119000A3A3A3A4A4A4A4A4A4A4A4A4A5A5A5A50E
:1011A000A5A5A5A6A6A6A6A6A6A6A6A7A7A7A7A7DD
:1011B000A7A7A7A8A8A8A8A8A8A8A8A8A9A9A9A9AE
:1011C000A9A9A9A9AAAAAAAAAAAAAAABABABABAB7E
:1011D000ABABABACACACACACACACACADADADADAD4D
:1011E000ADADADAEAEAEAEAEAEAEAEAFAFAFAFAF1D
:1011F000AFAFAFAFB0B0B0B0B0B0B0B0B1B1B1B1EF
:10120000B1B1B1B2B2B2B2B2B2B2B2B3B3B3B3B3BC
:10121000B3B3B3B4B4B4B4B4B4B4B4B5B5B5B5B58C
:10122000B5B5B5B6B6B6B6B6B6B6B6B7B7B7B7B75C
:10123000B7B7B7B8B8B8B8B8B8B8B8B8B9B9B9B92D
:10124000B9B9B9BABABABABABABABABBBBBBBBBBFC
:10125000BBBBBBBCBCBCBCBCBCBCBCBDBDBDBDBDCC
:10126000BDBDBDBDBEBEBEBEBEBEBEBFBFBFBFBF9D
:10127000BFBFBFC0C0C0C0C0C0C0C0C1C1C1C1C16C
:10128000C1C1C1C1C2C2C2C2C2C2C2C2C3C3C3C33E
:10129000C3C3C3C4C4C4C4C4C4C4C4C4C5C5C5C50D
:1012A000C5C5C5C5C6C6C6C6C6C6C6C7C7C7C7C7DD
:1012B000C7C7C7C8C8C8C8C8C8C8C8C9C9C9C9C9AC
:1012C000C9C9C9CACACACACACACACACBCBCBCBCB7C
:1012D000CBCBCBCBCCCCCCCCCCCCCCCCCDCDCDCD4E
:1012E000CDCDCDCDCECECECECECECECFCFCFCFCF1D
:1012F000CFCFCFD0D0D0D0D0D0D0D0D1D1D1D1D1EC
:10130000D1D1D1D2D2D2D2D2D2D2D2D2D3D3D3D3BC
:10131000D3D3D3D4D4D4D4D4D4D4D4D4D5D5D5D58C
:10132000D5D5D5D6D6D6D6D6D6D6D6D6D7D7D7D75C
:10133000D7D7D7D8D8D8D8D8D8D8D8D9D9D9D9D92B
:10134000D9D9D9D9DADADADADADADADADBDBDBDBFD
:10135000DBDBDBDCDCDCDCDCDCDCDCDCDDDDDDDDCC
:10136000DDDDDDDDDEDEDEDEDEDEDEDFDFDFDFDF9C
:10137000DFDFDFDFE0E0E0E0E0E0E0E1E1E1E1E16C
:10138000E1E1E1E2E2E2E2E2E2E2E2E2E3E3E3E33C
:10139000E3E3E3E4E4E4E4E4E4E4E4E5E5E5E5E50B
:1013A000E5E5E5E6E6E6E6E6E6E6E6E7E7E7E7E7DB
:1013B000E7E7E7E7E8E8E8E8E8E8E8E9E9E9E9E9AC
:1013C000E9E9E9EAEAEAEAEAEAEAEAEBEBEBEBEB7B
:1013D000EBEBEBECECECECECECECECECEDEDEDED4C
:1013E000EDEDEDEDEEEEEEEEEEEEEEEEEFEFEFEF1D
:1013F000EFEFEFF0F0F0F0F0F0F0F0F0F1F1F1F1EC
:10140000F1F1F1F1F2F2F2F2F2F2F2F3F3F3F3F3BB
:10141000F3F3F3F4F4F4F4F4F4F4F4F4F5F5F5F58B
:10142000F5F5F5F6F6F6F6F6F6F6F6F7F7F7F7F75A
:10143000F7F7F7F8F8F8F8F8F8F8F8F8F9F9F9F92B
:10144000F9F9F9F9FAFAFAFAFAFAFAFBFBFBFBFBFB
:10145000FBFBFBFCFCFCFCFCFCFCFCFDFDFDFDFDCA
:10146000FDFDFDFDFEFEFEFEFEFEFEFFFFFFFFFF9B
:10147000FFFFFF000000000000000000010101016B
:10148000010101010202020202020203030303033B
:10149000030303040404040404040405050505050A
:1014A00005050506060606060606060707070707DA
:1014B00007070707080808080808080909090909AB
:1014C0000909090A0A0A0A0A0A0A0A0B0B0B0B0B7A
:1014D0000B0B0B0B0C0C0C0C0C0C0C0D0D0D0D0D4B
:1014E0000D0D0D0D0E0E0E0E0E0E0E0F0F0F0F0F1B
:1014F0000F0F0F0F101010101010101011111111EC
:1015000011111112121212121212121313131313B9
:101510001313131414141414141414151515151589
:10152000151515151616161616161617171717175A
:101530001717171818181818181818191919191929
:10154000191919191A1A1A1A1A1A1A1A1B1B1B1BFB
:101550001B1B1B1C1C1C1C1C1C1C1C1D1D1D1D1DC9
:101560001D1D1D1E1E1E1E1E1E1E1E1F1F1F1F1F99
:101570001F1F1F1F2020202020202021212021216B
:10158000222121202222222222222223232323233A
:10159000232323242424242424242424252525250A
:1015A00025252526262626262626262727272727D9
:1015B00027272728282828282828282929292929A9
:1015C0002929292A2A2A2A2A2A2A2A2A2B2B2B2B7A
:1015D0002B2B2B2B2C2C2C2C2C2C2C2D2D2D2D2D4A
:1015E0002D2D2D2E2E2E2E2E2E2E2E2E2F2F2F2F1A
:1015F0002F2F2F2F303030303030303131313131EA
:1016000031313132323232323232323333333333B8
:101610003333333334343434343434353535353589
:101620003535353636363636363636363737373759
:101630003737373738383838383838393939393929
:10164000393939393A3A3A3A3A3A3A3A3B3B3B3BFA
:101650003B3B3B3C3C3C3C3C3C3C3C3D3D3D3D3DC8
:101660003D3D3D3E3E3E3E3E3E3E3E3F3F3F3F3F98
:101670003F3F3F4040404040404040414141414168
:101680004141414242424242424242434343434338
:101690004343434444444444444444454545454508
:1016A00045454546464646464646464647474747D9
:1016B00047474748484848484848484949494949A8
:1016C0004949494A4A4A4A4A4A4A4A4A4B4B4B4B79
:1016D0004B4B4B4C4C4C4C4C4C4C4C4C4D4D4D4D49
:1016E0004D4D4D4D4E4E4E4E4E4E4E4F4F4F4F4F19
:1016F0004F4F4F50505050505050505051515151E9
:1017000051515152525252525252525253535353B8
:101710005353535454545454545454545555555588
:101720005555555656565656565656565757575758
:101730005757575858585858585858585959595928
:10174000595959595A5A5A5A5A5A5A5B5B5B5B5BF8
:101750005B5B5B5C5C5C5C5C5C5C5C5D5D5D5D5DC7
:101760005D5D5D5E5E5E5E5E5E5E5E5F5F5F5F5F97
:101770005F5F5F6060606060606060616161616167
:101780006161616162626262626262636363636338
:101790006363636364646464646464656565656508
:1017A00065656565666666666666666767676767D8
:1017B00067676768686868686868686969696969A7
:1017C0006969696A6A6A6A6A6A6A6A6B6B6B6B6B77
:1017D0006B6B6B6C6C6C6C6C6C6C6C6D6D6D6D6D47
:1017E0006D6D6D6E6E6E6E6E6E6E6E6F6F6F6F6F17
:1017F0006F6F6F70707070707070707171717171E7
:1018000071717171727272727272727373737373B7
:101810007373737474747474747474747575757587
:101820007575757576767676767676777777777757
:101830007777777778787878787878787979797928
:10184000797979797A7A7A7A7A7A7A7B7B7B7B7BF7
:101850007B7B7B7C7C7C7C7C7C7C7C7D7D7D7D7DC6
:101860007D7D7D7D7E7E7E7E7E7E7E7F7F7F7F7F97
:101870007F7F7F00000001010102020303030404D3
:10188000050505060607070708080909090A0A0ADF
:101890000B0B0C0C0C0D0D0E0E0E0F0F101010116B
:1018A00011121212131313141415151516161717F7
:1018B0001718181819191A1A1A1B1B1C1C1C1D1D85
:1018C0001D1E1E1F1F1F2020202121222222232314
:1018D00024242425252526262727272828282929A2
:1018E0002A2A2A2B2B2B2C2C2C2D2D2E2E2E2F2F33
:1018F0002F303030313132323233333334343435C7
:10190000353636363737373838383939393A3A3A5A
:101910003B3B3B3C3C3D3D3D3E3E3E3F3F3F4040F0
:10192000404141414242424343434444444545458A
:101930004646464747474848484949494A4A4A4A25
:101940004B4B4B4C4C4C4D4D4D4E4E4E4F4F4F4FC5
:101950005050505151515252525353535354545466
:10196000555555555656565757575758585859590B
:1019700059595A5A5A5B5B5B5B5C5C5C5C5D5D5DB4
:101980005E5E5E5E5F5F5F5F60606060616161615F
:10199000626262626363636364646464656565650F
:1019A00066666666676767676768686868696969C1
:1019B00069696A6A6A6A6B6B6B6B6B6C6C6C6C6C7A
:1019C0006D6D6D6D6D6E6E6E6E6E6F6F6F6F6F7035
:1019D00070707070717171717171727272727273F4
:1019E00073737373737474747474747575757575B7
:1019F0007575767676767676777777777777777781
:101A00007878787878787879797979797979797A4C
:101A10007A7A7A7A7A7A7A7A7B7B7B7B7B7B7B7B1E
:101A20007B7B7C7C7C7C7C7C7C7C7C7C7C7D7D7DF5
:101A30007D7D7D7D7D7D7D7D7D7D7E7E7E7E7E7ED0
:101A40007E7E7E7E7E7E7E7E7E7E7E7F7F7F7F7FB1
:101A50007F7F7F7F7F7F7F7F7F7F7F7F7F7F7F7F96
:101A60007F7F7F7F7F7F7F7F7F7F7F7F7F7F7F7F86
:101A70007F7F7F7F7F7F7F7F7F7F7F7F7F7F7F7F76
:101A80007F7F7F7F7F7F7F7F7F7F7F7F7F7F7F7F66
:101A90007F7F7F7F7F7F7F7F7F7F7F7F7E7E7E7E5A
:101AA0007E7E7E7E7E7E7E7E7E7E7E7E7E7D7D7D59
:101AB0007D7D7D7D7D7D7D7D7D7D7C7C7C7C7C7C5C
:101AC0007C7C7C7C7C7B7B7B7B7B7B7B7B7B7B7A62
:101AD0007A7A7A7A7A7A7A7A79797979797979796E
:101AE0007878787878787877777777777777767681
:101AF0007676767676757575757575757474747495
:101B000074747373737373737272727272717171AE
:101B100071717170707070706F6F6F6F6F6E6E6ECD
:101B20006E6E6D6D6D6D6D6C6C6C6C6C6B6B6B6BF0
:101B30006B6A6A6A6A6A6969696968686868676716
:101B40006767676666666665656565646464646341
:101B50006363636262626261616161606060605F71
:101B60005F5F5F5E5E5E5E5D5D5D5C5C5C5C5B5BA3
:101B70005B5B5A5A5A5959595958585857575757D9
:101B80005656565555555554545453535353525213
:101B9000525151515050504F4F4F4F4E4E4E4D4D50
:101BA0004D4C4C4C4B4B4B4A4A4A4A494949484890
:101BB00048474747464646454545444444434343D2
:101BC0004242424141414040403F3F3F3E3E3E3D18
:101BD0003D3D3C3C3B3B3B3A3A3A39393938383861
:101BE00037373736363635353434343333333232AB
:101BF0003231313030302F2F2F2E2E2E2D2D2C2CF8
:101C00002C2B2B2B2A2A2A29292828282727272644
:101C10002625252524242423232222222221212093
:101C2000201F1F1F1E1E1D1D1D1C1C1C1B1B1A1AE6
:101C30001A19191818181717171616151515141438
:101C400013131312121211111010100F0F0E0E0E8B
:101C50000D0D0C0C0C0B0B0A0A0A090909080807E0
:101C60000707060605050504040303030202010134
:101C7000010000FFFFFFFEFEFEFDFDFCFCFCFBFB88
:101C8000FAFAFAF9F9F8F8F8F7F7F6F6F6F5F5F5DD
:101C9000F4F4F3F3F3F2F2F1F1F1F0F0EFEFEFEE31
:101CA000EEEDEDEDECECECEBEBEAEAEAE9E9E8E885
:101CB000E8E7E7E7E6E6E5E5E5E4E4E3E3E3E2E2D7
:101CC000E2E1E1E0E0E0DFDFDFDEDEDDDDDDDCDC28
:101CD000DBDBDBDADADAD9D9D8D8D8D7D7D7D6D67A
:101CE000D6D5D5D4D4D4D3D3D3D2D2D1D1D1D0D0C8
:101CF000D0CFCFCFCECECDCDCDCCCCCCCBCBCBCA15
:101D0000CAC9C9C9C8C8C8C7C7C7C6C6C6C5C5C560
:101D1000C4C4C4C3C3C2C2C2C1C1C1C0C0C0BFBFAA
:101D2000BFBEBEBEBDBDBDBCBCBCBBBBBBBABABAF0
:101D3000B9B9B9B8B8B8B7B7B7B6B6B6B5B5B5B535
:101D4000B4B4B4B3B3B3B2B2B2B1B1B1B0B0B0B075
:101D5000AFAFAFAEAEAEADADADACACACACABABABB4
:101D6000AAAAAAAAA9A9A9A8A8A8A8A7A7A7A6A6EF
:101D7000A6A6A5A5A5A4A4A4A4A3A3A3A3A2A2A226
:101D8000A1A1A1A1A0A0A0A09F9F9F9F9E9E9E9E5B
:101D90009D9D9D9D9C9C9C9C9B9B9B9B9A9A9A9A8B
:101DA00099999999989898989897979797969696B9
:101DB00096969595959594949494949393939393E0
:101DC0009292929292919191919190909090908F05
:101DD0008F8F8F8F8E8E8E8E8E8E8D8D8D8D8D8C26
:101DE0008C8C8C8C8C8B8B8B8B8B8B8A8A8A8A8A43
:101DF0008A8A898989898989898888888888888858
:101E0000878787878787878686868686868686856C
:101E1000858585858585858584848484848484847A
:101E20008484838383838383838383838382828283
:101E30008282828282828282828281818181818188
:101E40008181818181818181818181808080808087
:101E50008080808080808080808080808080808082
:101E60008080808080808080808080808080808072
:101E70008080808080808080808080808080808062
:101E80008080808080808080808080808080808052
:101E9000808080808080808080808080818181813E
:101EA000818181818181818181818181818282821F
:101EB00082828282828282828282838383838383FC
:101EC00083838383838484848484848484848485D6
:101ED00085858585858585858686868686868686AA
:101EE0008787878787878788888888888888888978
:101EF00089898989898A8A8A8A8A8A8A8B8B8B8B43
:101F00008B8B8C8C8C8C8C8C8D8D8D8D8D8E8E8E08
:101F10008E8E8E8F8F8F8F8F9090909090919191C9
:101F20009191929292929293939393939494949486
:101F3000949595959596969696969797979798983F
:101F4000989898999999999A9A9A9A9B9B9B9B9CF5
:101F50009C9C9C9D9D9D9D9E9E9E9E9F9F9F9FA0A5
:101F6000A0A0A0A1A1A1A1A2A2A2A3A3A3A3A4A453
:101F7000A4A4A5A5A5A6A6A6A6A7A7A7A8A8A8A8FD
:101F8000A9A9A9AAAAAAAAABABABACACACACADADA3
:101F9000ADAEAEAEAFAFAFB0B0B0B0B1B1B1B2B246
:101FA000B2B3B3B3B4B4B4B5B5B5B5B6B6B6B7B7E6
:101FB000B7B8B8B8B9B9B9BABABABBBBBBBCBCBC84
:101FC000BDBDBDBEBEBEBFBFBFC0C0C0C1C1C1C21E
:101FD000C2C2C3C3C4C4C4C5C5C5C6C6C6C7C7C7B5
:101FE000C8C8C8C9C9C9CACACBCBCBCCCCCCCDCD4B
:101FF000CDCECECFCFCFD0D0D0D1D1D1D2D2D3D3DE
:10200000D3D4D4D4D5D5D5D6D6D7D7D7D8D8D8D970
:10201000D9DADADADBDBDBDCDCDDDDDDDEDEDEDF00
:10202000DFE0E0E0E1E1E2E2E2E3E3E3E4E4E5E58E
:10203000E5E6E6E7E7E7E8E8E8E9E9EAEAEAEBEB1C
:10204000ECECECEDEDEDEEEEEFEFEFF0F0F1F1F1A9
:10205000F2F2F3F3F3F4F4F5F5F5F6F6F6F7F7F834
:10206000F8F8F9F9FAFAFAFBFBFCFCFCFDFDFEFEC0
:10207000FEFFFF0000000076A90800512D090004B2
:10208000B90900054D0A00D3E90A00F48F0B00F6E8
:102090003F0C0070FA0C0000C00D004F910E0011B3
:1020A0006F0F00025A1000EC521100A35A120008E0
:1020B0007213000A9A1400A6D31500E91F1700ED49
:1020C0007F1800E0F4190000801B009E221D0022F2
:1020D000DE1E0004B42000D8A5220046B52400105E
:1020E000E42600153429004DA72B00D23F2E00DA3C
:1020F000FF3000C0E93300FFFF36003D453A0044A1
:10210000BC3D0008684100AF4B45008C6A49002087
:10211000C84D002A6852009C4E5700A47F5C00B452
:10212000FF610080D36700FFFF6D007B8A74008928
:10213000787B0011D082005F978A0018D592004109
:10214000909B0053D0A400339DAE0046FFB80069B9
:10215000FFC30000A7CF00FDFFDB00F414E9000B74
:10216000F1F60020A00501BE2E150130AA2501823E
:10217000203701A6A04901663A5D018CFE7101D2AB
:10218000FE8701004E9F01FAFFB701F229D201201C
:10219000E2ED0140400B027C5D2A024C544B0204EC
:1021A000416E024C419302CC74BA0228FDE302A4B2
:1021B000FD0F03009C3E03F4FF6F03E453A40340B0
:1021C000C4DB0380801604F8BA540498A896040867
:1021D00082DC049882260598E9740530FAC7054820
:1021E000FB1F0600387D06E8FFDF06C8A74807800A
:1021F00088B70700012D08F075A90830512D091086
:1022000004B90930054D0AA0D3E90AA0F48F0B00E8
:10221000F63F0CC06FFA0C70FFBF0D804E910EB0F0
:10222000106F0FA0015A10E0EB521160A25A122059
:10223000087213600A9A1440A7D31540E81F1700CC
:10224000EC7F1880DFF419E0FE7F1B009D221D60EB
:1022500021DE1E4003B420C0D7A522C044B52440CF
:1022600010E426C0143429804EA72B80D23F2E00C4
:10227000D8FF3000000000250028002B00000000DF
:1022800000240027002A00040404040404040402B7
:102290000202020202030303030303010204081003
:1022A00020408001020408102001020408102000D0
:1022B000EB1DEA1D11241FBECFEFD8E0DEBFCDBF5E
:1022C00011E0A0E0B1E0EAEAF4E402C005900D926A
:1022D000AC3BB107D9F727E0ACEBB1E001C01D92F0
:1022E000A835B207E1F711E1C9E5D1E104C02197B2
:1022F000FE010E949C1FC835D107C9F70E94DC1758
:102300000C9448220C940000089580E090E0089519
:10231000FC01538D448D252F30E0842F90E0821BEB
:10232000930B541710F0CF96089501970895FC0170
:10233000918D828D981761F0828DDF01A80FB11DFC
:102340005D968C91928D9F5F9F73928F90E0089520
:102350008FEF9FEF0895FC01918D828D981731F0DA
:10236000828DE80FF11D858D90E008958FEF9FEF2E
:102370000895FC01918D228D892F90E0805C9F4F04
:10238000821B91098F73992708958CE292E00E9435
:10239000B91121E0892B09F420E0822F0895FC0176
:1023A000848DDF01A80FB11DA35ABF4F2C91848DDE
:1023B00090E001968F739927848FA689B7892C9313
:1023C000A089B1898C9180648C93938D848D9813AE
:1023D00006C00288F389E02D80818F7D8083089577
:1023E000EF92FF920F931F93CF93DF93EC0181E065
:1023F000888F9B8D8C8D981305C0E889F989808121
:1024000085FD24C0F62E0B8D10E00F5F1F4F0F735C
:102410001127E02E8C8DE8120CC00FB607FCFACF06
:10242000E889F989808185FFF5CFCE010E94CF111F
:10243000F1CF8B8DFE01E80FF11DE35AFF4FF082C3
:102440000B8FEA89FB898081806207C0EE89FF8952
:102450006083E889F98980818064808381E090E0ED
:10246000DF91CF911F910F91FF90EF900895CF933F
:10247000DF93EC01888D8823C9F0EA89FB8980818C
:1024800085FD05C0A889B9898C9186FD0FC00FB65E
:1024900007FCF5CF808185FFF2CFA889B9898C919F
:1024A00085FFEDCFCE010E94CF11E7CFDF91CF9115
:1024B000089580E090E0892B29F00E94C5118111D8
:1024C0000C940000089584E08093FE018FEF8093C8
:1024D000FF0110922102109220021092220285EE3A
:1024E0008093BC00089582E08093FE018FEF80937B
:1024F000FF01109221028093200281E0809322024A
:1025000085EE8093BC00089585ED8093BC0080919A
:10251000BC0084FDFCCF8091FE018093FD011092F0
:10252000FE018091FD01833011F40C9463128091BF
:10253000FD01813011F40C9473120895CF93DF9351
:102540001F92CDB7DEB780911703909118038F3F8C
:102550002FEF920761F0FC01EF5EFC4F2081298391
:1025600001979093180380931703898101C08FEF1F
:1025700080930401809104018F3F59F08091040100
:102580008770806480937C0080917A00806480935F
:102590007A000F90DF91CF9108957770FC018285CA
:1025A0009385FC01E60FF71F84910895CF92DF9287
:1025B000EF92FF920F931F93DC0116960D911D91E0
:1025C0002D913C9119971296CD90DD90ED90FC9055
:1025D00015970C0D1D1D2E1D3F1D12960D931D935D
:1025E0002D933C9315978BE0440F551F661F771F63
:1025F0008A95D1F7040F151F261F371FC901977041
:102600001A96ED91FC911B97E80FF91F84911F9189
:102610000F91FF90EF90DF90CF900895DC011D9611
:102620002D913C911E97232B11F40C94CD12DC01BB
:102630001C96EC91F0E0EE0FFF1FE050FF4F019071
:10264000F081E02DCB0197700994CF92DF92EF9249
:10265000FF920F931F93FC0185859685892B49F482
:10266000CF011F910F91FF90EF90DF90CF900C94CE
:10267000D6120681178120853185C280D380E480FF
:10268000F5800C0D1D1D2E1D3F1D02831383248319
:102690003583E485F0E0EE0FFF1FE050FF4FDB01D4
:1026A000CA014BE0880F991FAA1FBB1F4A95D1F79B
:1026B000BC01CD01600F711F821F931F0190F0813B
:1026C000E02D97701F910F91FF90EF90DF90CF90CA
:1026D0000994DC0112964D915D916D917C91159755
:1026E0009B0137701A96ED91FC911B97E20FF31F37
:1026F00084910895DC011D962D913C911E97232B0A
:1027000011F40C946913DC011C96EC911C97F0E019
:10271000EE0FFF1FE050FF4F12966D917D918D914E
:102720009C9115970190F081E02D97700994CF92BC
:10273000DF92EF92FF920F931F93CF93DF93EC0101
:102740008B018A819B8101969B838A832C813D81A9
:102750008217930728F11B821A82FB0181819281E3
:102760009D838C83C8A8D9A8EAA8FBA86781862F77
:1027700090E0A0E0B0E0DC0199278827BC01CD0102
:102780006C197D098E099F09238134814581568109
:102790000E94241F2CAB3DAB4EAB5FAB1FA70EA717
:1027A000DF91CF911F910F91FF90EF90DF90CF902D
:1027B000089580E0089580E008958115944010F018
:1027C00080E0089588E708958D58974EFC01849124
:1027D00008951F920F920FB60F9211242F933F93DB
:1027E0004F935F936F937F938F939F93AF93BF9319
:1027F000EF93FF938CE292E00E94CF11FF91EF9153
:10280000BF91AF919F918F917F916F915F914F9108
:102810003F912F910F900FBE0F901F9018951F9210
:102820000F920FB60F9211242F938F939F93EF93D4
:10283000FF93E0913C02F0913D028081E0914202E1
:10284000F091430282FD12C09081809145028F5F1A
:102850008F7320914602821751F0E0914502F0E01B
:10286000E45DFD4F958F8093450201C08081FF910B
:10287000EF919F918F912F910F900FBE0F901F900E
:1028800018952FB7F89460912802709129028091D1
:102890002A0290912B022FBF08951F920F920FB61C
:1028A0000F9211242F933F938F939F93AF93BF93D6
:1028B0008091280290912902A0912A02B0912B02C6
:1028C0003091270223E0230F2D3720F40196A11D1C
:1028D000B11D05C026E8230F0296A11DB11D20934E
:1028E00027028093280290932902A0932A02B09392
:1028F0002B028091230290912402A0912502B09195
:1029000026020196A11DB11D8093230290932402FB
:10291000A0932502B0932602BF91AF919F918F9112
:102920003F912F910F900FBE0F901F9018951F92FF
:102930000F920FB60F9211242F933F934F935F93F3
:102940006F937F938F939F93AF93BF93EF93FF9377
:102950008091B900887F883221F170F48031F1F0E4
:1029600030F4882309F472C08830C1F073C0883114
:10297000C1F0803251F16EC0803409F44EC028F4A9
:10298000803319F1883321F165C08035D1F1883564
:1029900009F44FC0883409F05DC05AC0809122020A
:1029A00011C09091210280912002981708F050C028
:1029B000E091210281E08E0F80932102F0E0E0504F
:1029C000FE4F80818093BB002EC08093FF0140C0EA
:1029D0008093FF0185EC8093BC008091FE01809381
:1029E000FD011092FE018091FD01833019F40E94D7
:1029F000631230C08091FD01813061F50E94731235
:102A000029C0E091210281E08E0F80932102809104
:102A1000BB00F0E0E050FE4F808390912102809156
:102A20002002981710F485EC01C085E88093BC0063
:102A300011C0E091210281E08E0F809321028091EC
:102A4000BB00F0E0E050FE4F808302C01092FF0117
:102A50000E948412FF91EF91BF91AF919F918F914E
:102A60007F916F915F914F913F912F910F900FBE8A
:102A70000F901F90189578941F920F920FB60F9297
:102A800011242F933F934F935F936F937F938F9373
:102A90009F93AF93BF93EF93FF9310926E00E091DB
:102AA000BD01F091BE010995F8948091BC01882385
:102AB00011F016BCA99A80916E00826080936E001E
:102AC000FF91EF91BF91AF919F918F917F916F9106
:102AD0005F914F913F912F910F900FBE0F901F90DC
:102AE00018951F920F920FB60F9211242F933F93B8
:102AF0004F935F936F937F938F939F93AF93BF9306
:102B0000EF93FF9380910501882341F080917A0033
:102B1000806480937A001092050111C0E091040155
:102B20008091780090917900EE0FFF0BEF50FE4FEF
:102B3000918380830E949E1281E080930501FF9122
:102B4000EF91BF91AF919F918F917F916F915F9125
:102B50004F913F912F910F900FBE0F901F9018959E
:102B60001F920F920FB60F9211242F933F938F93C2
:102B70009F93AF93BF93EF93FF938091F00191E008
:102B800089278093F001882359F180911905E82F56
:102B9000F0E0EE0FFF1FE75EFC4F208131818F5F79
:102BA00080931905811118C080911B059827909377
:102BB0001B0580911D0590911E05A0911F05B091E8
:102BC00020050196A11DB11D80931D0590931E0542
:102BD000A0931F05B09320053093890020938800AF
:102BE000FF91EF91BF91AF919F918F913F912F9165
:102BF0000F900FBE0F901F9018950F931F93CF93B8
:102C0000DF93CDB7DEB7A0970FB6F894DEBF0FBE47
:102C1000CDBFFC0116861586628773877F936F93FD
:102C2000FF938F9389EA91E09F938F938E010F5FBB
:102C30001F4F1F930F930E94A71FB8018CE292E0D1
:102C40000E94C6170FB6F894DEBF0FBECDBFA09688
:102C50000FB6F894DEBF0FBECDBFDF91CF911F91AD
:102C60000F910895EBECF1E040E050E0440F551F68
:102C700081918111416081E0E13DF807B9F7506829
:102C800060E070E022E08CE292E00E947D1762E753
:102C900071E08CE292E00C946817BF92CF92DF92C1
:102CA000EF92FF920F931F93CF93DF938BECE82E5D
:102CB00081E0F82E9FEBC92E91E0D92EC0EDD5E032
:102CC00000E010E028E3B22EF7018081882309F4A8
:102CD00047C0CE018697E885F9852081213059F0DB
:102CE00030F0223061F0233079F4BE010BC0BE0118
:102CF0006851710907C0BE016051710903C0BE016E
:102D0000685071090E9497132FB7F894B09EF00194
:102D1000B19EF00D1124E655FA4F84A995A9A6A9F4
:102D2000B7A940A951A962A973A9840F951FA61F2D
:102D3000B71F80AB91ABA2ABB3AB2FBF80A991A95A
:102D4000A2A9B3A98A2F90E0F60191838083E88538
:102D5000F9858081843021F4F70110820E943216B7
:102D60000F5F1F4FFFEFEF1AFF0A82E0C80ED11C62
:102D7000E8960630110509F0A7CF809104018F3F36
:102D800029F40E949E1281E080930501DF91CF918A
:102D90001F910F91FF90EF90DF90CF90BF9008951B
:102DA000CF92DF92EF92FF920F931F93CF93DF9317
:102DB0006C017A018B01C0E0D0E0CE15DF0589F00F
:102DC000D8016D918D01D601ED91FC910190F081BA
:102DD000E02DC6010995892B11F47E0102C02196D0
:102DE000ECCFC701DF91CF911F910F91FF90EF9032
:102DF000DF90CF9008950E94A21FECE2F2E0A0893C
:102E0000B18982E08C93A485B5851C92A685B7858F
:102E100080E18C93108EA489B58986E08C93A28979
:102E2000B3898C9180618C93A289B3898C918860DD
:102E30008C93A289B3898C9180688C930288F389E2
:102E4000E02D80818F7D80830895E4EAF2E2249171
:102E5000E0E9F2E28491882399F090E0880F991FCD
:102E6000FC01E358FD4DA591B491FC01ED58FD4DD9
:102E7000859194918FB7F894EC91E22BEC938FBFEE
:102E800008958F929F92AF92BF92CF92DF92EF926E
:102E9000FF926B017C010E9441144B015C01C60E44
:102EA000D71EE81EF91E0E944114681579058A058F
:102EB0009B0528F0C616D706E806F906A0F7FF908E
:102EC000EF90DF90CF90BF90AF909F908F9008953C
:102ED0006115710579F0FB0101900020E9F7319748
:102EE000AF01461B570BDC01ED91FC910280F38191
:102EF000E02D099480E090E008954F925F926F92E8
:102F00007F92EF92FF920F931F93CF93DF93CDB7F2
:102F1000DEB7A1970FB6F894DEBF0FBECDBF7C0120
:102F2000FA01CB0119A2223008F42AE08E010F5DCC
:102F30001F4F422E512C612C712CBF01A301920115
:102F40000E94021FF901CA01015011096A3014F4EC
:102F5000605D01C0695CD8016C93232B242B252B69
:102F600061F7B801C7010E946817A1960FB6F894DF
:102F7000DEBF0FBECDBFDF91CF911F910F91FF90AC
:102F8000EF907F906F905F904F9008950F931F93F5
:102F9000CF93DF93EC010E9468178C0162E771E028
:102FA000CE010E946817800F911FDF91CF911F9172
:102FB0000F9108950C946817CF93DF93CDB7DEB7C8
:102FC000E4970FB6F894DEBF0FBECDBF789484B5FA
:102FD000826084BD84B5816084BD85B5826085BD15
:102FE00085B5816085BD80916E00816080936E00A3
:102FF0001092810080918100826080938100809195
:103000008100816080938100809180008160809345
:1030100080008091B10084608093B1008091B00005
:1030200081608093B00080917A00846080937A0000
:1030300080917A00826080937A0080917A0081602A
:1030400080937A0080917A00806880937A00109251
:10305000C10010920D0310920E0310920F031092F4
:1030600010031092CB021092CC021092CD0210925B
:10307000CE0268EB7BE080E090E00E9441178CE29A
:1030800092E090930C0380930B030E94FD160E9424
:1030900041146093CB027093CC028093CD02909345
:1030A000CE0260E371E080910B0390910C030E94CB
:1030B000DA176AE070E080E090E00E94411781E05A
:1030C0008093DF020E94FD1662E471E08CE292E0E0
:1030D0000E94C61780917A00886080937A00809160
:1030E0007A00846080937A0080917A008D7F80934B
:1030F0007A0080917A008E7F80937A0080E090E061
:1031000061E070E040917E009B01082E01C0220F1B
:103110000A94EAF7242B20937E00019686309105CD
:1031200089F784B58093EA0185B58093E90187B575
:103130008093E80180916E008093E7018DE496E131
:103140009093BE018093BD011092BC0180E090E09D
:1031500040E950ED63E070E0FC01E859FF4FE49175
:10316000EE2389F06A017B01082E04C0F694E794EF
:10317000D794C7940A94D2F731E0C316D306E1047A
:10318000F10408F407C501968B30910529F7809169
:103190006E00826080936E0084B58093E60185B5F1
:1031A0008093E50187B58093E40180916E00809360
:1031B000E301809180008093D4018091810080930D
:1031C000D30180918800909189008093D2018091F1
:1031D0006F008093D1010E9425171092DE0198E1C3
:1031E0009093DF0182E08093E001909381008093CF
:1031F000800088EE91E0A0E0B0E011E01093DB01E8
:103200009093DA018093D901909387008093860090
:1032100089E1809381000E94251790918000809120
:10322000E001892B8068809380002091D901309142
:10323000DA01A4EFB0E00E948D1FDC01CB01EAE0CF
:10324000B695A79597958795EA95D1F790938900BC
:10325000809388009091DB018091DF01892B80931E
:10326000810010936F00809180008093D80180913D
:1032700081008093D701809188009091890080938C
:10328000D60180916F008093D501259A84EE93E159
:1032900090930101809300011F921F9288E491E0B6
:1032A0009F938F931F921F92FCE4CF2EF1E0DF2EAD
:1032B000DF92CF92AE014F5F5F4F7A015F934F93E2
:1032C0000E94A71FB7018CE292E00E94C6178DED05
:1032D00093E190930301809302011F921F938FE566
:1032E00091E09F938F931F921F93DF92CF92FF9253
:1032F000EF920E94A71FB7018CE292E00E94C617CE
:1033000063E778E18AEF96E00E94FD1563E770E1DC
:1033100089E097E00E94FD1563E778E088E197E097
:103320000E94FD1563E770E087E297E00E94FD15BB
:1033300081E090E090934407809343071092420706
:103340009093530780935207109351070FB6F89448
:10335000DEBF0FBECDBF80E090E03FE040E050E038
:1033600067E370E02FB7F894389FF001399FF00DB4
:103370001124E650F94F46835783608771872FBF2A
:1033800001968630910571F7DE011196BAA3A9A3C3
:10339000A855B740B8ABAFA70E9441140091EC010B
:1033A0001091ED012091EE013091EF01DC01CB0194
:1033B000801B910BA20BB30B86399105A105B105BA
:1033C00008F49AC00E9441146093EC017093ED01DF
:1033D0008093EE019093EF0161E070E080E090E077
:1033E0000E9441170E9441146093CB027093CC025B
:1033F0008093CD029093CE0263E671E080910B033F
:1034000090910C030E94DA176AE671E080910B0339
:1034100090910C030E94DA176AE671E080910B0329
:1034200090910C030E94DA176AE671E080910B0319
:1034300090910C030E94DA178091540790915507E0
:10344000009729F4EFA5F8A9FA83E9831BC049A1E5
:103450005AA1481B590BE0915607F091570780E09D
:1034600090E0309759F09C012E5F3F4F8081918111
:10347000820F931F0280F381E02DF3CF840F951FFD
:103480009A838983C980DA8000910B0310910C0321
:103490000D2C000CEE08FF08F7FE12C0D801ED91CC
:1034A000FC910190F081E02D6DE2C801099544275F
:1034B0005527BA014C195D096E097F092AE003C03E
:1034C0002AE0B701A601C8010E947D176AE671E0F3
:1034D00080910B0390910C030E94DA176CE671E067
:1034E00080910B0390910C030E94DA1761E070E069
:1034F00080E090E00E94411790911A058091190593
:10350000981306C090911C0580911B0598136DC0FF
:103510002D9A88ED882E85E0982E0AEF16E09FEB15
:10352000A92E91E0B92EE12CF12CC12CD12CD40183
:10353000ED91FC918081843079F1BFE0BC9DF00178
:10354000BD9DF00D1124E650F94F86819781A0852D
:10355000B185F8014281538164817581840F951F83
:10356000A61FB71F82839383A483B5830190F08144
:10357000E02D0480F581E02DC8010995D5012D913C
:103580003C91482F4203C001439F900D1124892F85
:10359000990F990BE80EF91E5FEFC51AD50A88E35B
:1035A000880E911C015F1F4F92E0A90EB11CA6E08E
:1035B000CA16D10409F0BBCF2D9880911A05E82FC7
:1035C000F0E0EE0FFF1FE75EFC4FB4EFEB0EF11CD7
:1035D000F182E0828F5F80931A05811106C090917D
:1035E0001C0581E0892780931C058CE292E00E94F3
:1035F000B911181619060CF0CAC28CE292E00E94AA
:103600009711B82E80ED8B0D873008F06BC1809339
:10361000EB0190E0FC01E553FE4F6F012081AA24ED
:10362000A3942A252083222309F443C028E3289F5A
:103630007001299FF00C1124870106551A4FD801FB
:1036400013961C921E92129717968D919C91189723
:1036500015969C938E931497D0964D905D906D9097
:103660007C90D3971D966C91862F90E0A0E0B0E0FF
:10367000DC0199278827BC01CD01641975098609E9
:103680009709F80121853285438554850E94241FBE
:10369000D801D4962D933D934D935C93D797C70152
:1036A00080559A4F9F969C938E939E97F601A08289
:1036B00019C128E3289F7001299FF00C112487016C
:1036C00006551A4FD80113961C921E9212975F96B8
:1036D0008D919C91909715969C938E931497D0966C
:1036E0004D905D906D907C90D39795966C91862FC0
:1036F00090E0A0E0B0E0DC0199278827BC01CD0173
:103700006419750986099709F80121A132A143A11D
:1037100054A10E94241FD801D4962D933D934D931C
:103720005C93D797C70188539A4F9F969C938E932B
:103730009E9724EF31E040E050E02093D702309391
:10374000D8024093D9025093DA021092DB02109211
:10375000DC021092DD021092DE028091CF02909185
:10376000D002A091D102B091D2028093D302909363
:10377000D402A093D502B093D6020E944114609364
:10378000CF027093D0028093D1029093D2020E9414
:1037900041140091CB021091CC022091CD023091C6
:1037A000CE02DC01CB01801B910BA20BB30B843644
:1037B0009105A105B10560F424E630E040E050E059
:1037C000281B390B4A0B5B0BCA01B9010E94411738
:1037D0000E9441146093CB027093CC028093CD027F
:1037E0009093CE020E9441146B017C0165E771E069
:1037F00080910B0390910C030E94DA172AE041E0BC
:1038000050E060E070E080910B0390910C030E9407
:103810007D176CE771E080910B0390910C030E947F
:10382000DA172AE0B701A60180910B0390910C03EF
:103830000E947D176EE771E080910B0390910C035D
:103840000E94DA178091CF029091D002A091D1020C
:10385000B091D202B701A601481B590B6A0B7B0B32
:103860002AE080910B0390910C030E947D176EE774
:1038700071E080910B0390910C030E94DA17409144
:10388000CF025091D0026091D1027091D20280910A
:10389000D3029091D402A091D502B091D602481BD8
:1038A000590B6A0B7B0B2AE080910B0390910C0360
:1038B0000E947D1760E871E080910B0390910C03EA
:1038C0000E94C61765E070E080E090E00E9441171A
:1038D0000E9441146093CF027093D0028093D10272
:1038E0009093D20238E7B31250C10E94E41E22E83E
:1038F00030E040E050E00E94241F6B017C0148E76B
:10390000C40ED11CE11CF11CA701960144275527C8
:10391000211531054105510579F029AB3AAB4BAB87
:103920005CAB0E94E41E29A93AA94BA95CA90E949C
:10393000241F362E272E02C0312C212CE091EB01C2
:1039400018E31E9FF0011124E655FA4FC586358A0B
:10395000358E81E085A315A60E94E41E28EE33E093
:1039600040E050E00E94241F6BA37CA38DA39EA384
:103970000E94E41E28EE33E040E050E00E94241F45
:103980006FA378A789A79AA70E94E41E28EE33E0C8
:1039900040E050E00E94241F6BA77CA78DA79EA744
:1039A0000E94E41E28EE33E040E050E00E94241F15
:1039B0002B013C01E091EB018BA19CA1ADA1BEA12B
:1039C000AA27BB279C01AD0164E056954795379522
:1039D00027956A95D1F71E9FF0011124E655FA4FFD
:1039E00030872783008111814801A12CB12CC501AA
:1039F000B4010E94F21E61877287838794878FA12A
:103A000098A5A9A5BAA5AA27BB279C01AD0174E07A
:103A100056954795379527957A95D1F7308B278717
:103A2000C501B4010E94F21E618B728B838B948B53
:103A30008BA59CA5ADA5BEA5AA27BB279C01AD0162
:103A4000A4E05695479537952795AA95D1F7308FDD
:103A5000278BC501B4010E94F21E618F728F838F84
:103A6000948FD301C201AA27BB279C01AD01B4E00A
:103A70005695479537952795BA95D1F730A3278F57
:103A8000C501B4010E94F21E61A372A383A394A393
:103A90008FEF9FE090A787A39801AFEFBFE00E9450
:103AA0008D1F61A772A783A794A70E94E41E23E23B
:103AB00030E040E050E00E94241FAB01BC01405DBB
:103AC0005F4F6F4F7F4FFA01EE0FFF1FEE0FFF1F8B
:103AD000ED58FF4D85919591A591B4918D012227C7
:103AE00033278091EB01882E912CBFB6F894C80142
:103AF000012E000CAA0BBB0B2DE0880F991FAA1FEB
:103B0000BB1F2A95D1F7882799273FE0A32EA89CB1
:103B1000F001A99CF00D1124E650F94F868397839C
:103B2000A087B187BFBE5F924F928CA58F939BA554
:103B30009F93A8A5AF93BFA1BF93ECA1EF93FBA167
:103B4000FF932F923F92DF92CF921F930F935F9339
:103B50004F938091EB011F928F9387E891E09F93A1
:103B60008F9321E030E02C0F3D1F3F932F930E9455
:103B7000A71FBE016F5F7F4F8CE292E00E94C617C5
:103B80000FB6F894DEBF0FBECDBF0E9432160E9462
:103B9000591202CCA1E0B0E002C0AA0FBB1F8A9567
:103BA000E2F7A70196010E944E1FDC01CB0124E041
:103BB000B595A795979587952A95D1F79093E201AA
:103BC0008093E10110926E0082E084BDE5BDCA944D
:103BD000C7BCDDCA089510922F0210922E0288EE03
:103BE00093E0A0E0B0E08093300290933102A09384
:103BF0003202B09333028EE091E090932D028093D5
:103C00002C0285EC90E0909339028093380284EC8A
:103C100090E090933B0280933A0280EC90E0909386
:103C20003D0280933C0281EC90E090933F028093B0
:103C30003E0282EC90E0909341028093400286EC39
:103C400090E09093430280934202109245021092BA
:103C5000460210924702109248021092CF02109230
:103C6000D0021092D1021092D2021092D30210927E
:103C7000D4021092D5021092D6021092D70210925E
:103C8000D8021092D9021092DA021092DB0210923E
:103C9000DC021092DD021092DE028FEF9FEF909314
:103CA0001803809317031092190510921A051092A9
:103CB0001B0510921C05EAEFF6E020E231E081E0FE
:103CC00090E0318320831486968785873F9647E06E
:103CD000E435F407B1F7E0EDF5E041E050E031E024
:103CE00022E093E084E0DF01969711965C934E9377
:103CF00016961C9218963C9318962C9318969C93A3
:103D0000808317961C92F89667E0E032F60759F721
:103D10001092A2051092A10584E68093A30580E489
:103D200090E09093A5058093A40508958F929F92AB
:103D3000AF92BF92CF92DF92EF92FF92CF93DF9339
:103D4000EC01688179818A819B816115710581050A
:103D5000910521F464E279ED8BE597E02DE133EFF5
:103D600041E050E00E94241F49015A019B01AC012F
:103D7000A7EAB1E40E94431F6B017C01ACEEB4EFF3
:103D8000A50194010E94511FDC01CB018C0D9D1DEA
:103D9000AE1DBF1DB7FF03C00197A109B0488883BE
:103DA0009983AA83BB83BC01CD019F77DF91CF911B
:103DB000FF90EF90DF90CF90BF90AF909F908F904B
:103DC00008950E94961E089586E091E00E94961E36
:103DD0000895609306017093070180930801909302
:103DE00009010895DB018F939F930E94431FBF91A8
:103DF000AF91A29F800D911DA39F900DB29F900D3A
:103E000011240895A1E21A2EAA1BBB1BFD010DC0AF
:103E1000AA1FBB1FEE1FFF1FA217B307E407F5077A
:103E200020F0A21BB30BE40BF50B661F771F881F56
:103E3000991F1A9469F760957095809590959B01EC
:103E4000AC01BD01CF010895052E97FB1EF400942F
:103E50000E943B1F57FD07D00E94021F07FC03D0A2
:103E60004EF40C943B1F50954095309521953F4F53
:103E70004F4F5F4F089590958095709561957F4F56
:103E80008F4F9F4F08950E948D1FA59F900DB49F47
:103E9000900DA49F800D911D11240895B7FF0C94DF
:103EA000431F0E94431F821B930B08952F923F9242
:103EB0004F925F926F927F928F929F92AF92BF923A
:103EC000CF92DF92EF92FF920F931F93CF93DF93E6
:103ED000CDB7DEB7CA1BDB0B0FB6F894DEBF0FBE43
:103EE000CDBF09942A88398848885F846E847D8490
:103EF0008C849B84AA84B984C884DF80EE80FD8092
:103F00000C811B81AA81B981CE0FD11D0FB6F89407
:103F1000DEBF0FBECDBFED010895A29FB001B39FDC
:103F2000C001A39F700D811D1124911DB29F700DC2
:103F3000811D1124911D0895EE0FFF1F0590F4912E
:103F4000E02D099481E090E0F8940C944822AEE0D2
:103F5000B0E0EDEAFFE10C94641F0D891E8986E054
:103F60008C831A8309838FEF9FE79E838D83AE0135
:103F7000475E5F4F6F89788DCE0101960E94CA1F00
:103F80002F813885F801E20FF31F10822E96E4E0AE
:103F90000C94801FACE0B0E0E0EDFFE10C94561F04
:103FA0007C016B018A01FC0117821682838181FFEB
:103FB000BDC1CE0101964C01F7019381F60193FD3D
:103FC000859193FF81916F01882309F4ABC18532FC
:103FD00039F493FD859193FF81916F01853229F426
:103FE000B70190E00E94B221E7CF512C312C20E0A4
:103FF0002032A0F48B3269F030F4803259F08332F1
:1040000069F420612CC08D3239F0803339F421609D
:1040100026C02260246023C0286021C027FD27C05D
:1040200030ED380F3A3078F426FF06C0FAE05F9E94
:10403000300D1124532E13C08AE0389E300D112408
:10404000332E20620CC08E3221F426FD6BC1206419
:1040500006C08C3611F4206802C0883641F4F6019F
:1040600093FD859193FF81916F018111C1CF982FAD
:104070009F7D9554933028F40C5F1F4FFFE3F98325
:104080000DC0833631F0833771F0833509F05BC0A2
:1040900022C0F801808189830E5F1F4F442443941E
:1040A000512C540115C03801F2E06F0E711CF8015B
:1040B000A080B18026FF03C0652D70E002C06FEFC5
:1040C0007FEFC5012C870E94A7212C0183012C853D
:1040D0002F77222E17C03801F2E06F0E711CF80105
:1040E000A080B18026FF03C0652D70E002C06FEF95
:1040F0007FEFC5012C870E949C212C012C85206814
:10410000222E830123FC1BC0832D90E04816590604
:10411000B0F4B70180E290E00E94B2213A94F4CF6B
:10412000F50127FC859127FE81915F01B70190E0A1
:104130000E94B22131103A94F1E04F1A5108411413
:10414000510471F7E5C0843611F0893639F5F8016C
:1041500027FF07C060817181828193810C5F1F4FAF
:1041600008C060817181072E000C880B990B0E5FCF
:104170001F4F2F76722E97FF09C0909580957095EE
:1041800061957F4F8F4F9F4F2068722E2AE030E05D
:10419000A4010E94EA21A82EA81844C0853729F45A
:1041A0002F7EB22E2AE030E025C0F22FF97FBF2EFD
:1041B0008F36C1F018F4883579F0B4C0803719F023
:1041C000883721F0AFC02F2F2061B22EB4FE0DC072
:1041D0008B2D8460B82E09C024FF0AC09F2F9660E3
:1041E000B92E06C028E030E005C020E130E002C072
:1041F00020E132E0F801B7FE07C060817181828161
:1042000093810C5F1F4F06C06081718180E090E058
:104210000E5F1F4FA4010E94EA21A82EA818FB2DB3
:10422000FF777F2E76FE0BC0372D3E7FA51450F40E
:1042300074FE0AC072FC08C0372D3E7E05C0BA2C41
:10424000372D03C0BA2C01C0B52C34FF0DC0FE01C0
:10425000EA0DF11D8081803311F4397E09C032FFEF
:1042600006C0B394B39404C0832F867809F0B39446
:1042700033FD13C030FF06C05A2CB31418F4530C8E
:104280005B18B32CB31468F4B70180E290E03C876C
:104290000E94B221B3943C85F5CFB31410F43B18BF
:1042A00001C0312C34FF12C0B70180E390E03C879D
:1042B0000E94B2213C8532FF17C031FD03C088E760
:1042C00090E002C088E590E0B7010CC0832F8678AB
:1042D00059F031FF02C08BE201C080E237FD8DE270
:1042E000B70190E00E94B221A51438F4B70180E331
:1042F00090E00E94B2215A94F7CFAA94F401EA0DFB
:10430000F11D8081B70190E00E94B221A110F5CF8C
:10431000332009F451CEB70180E290E00E94B2212F
:104320003A94F6CFF7018681978102C08FEF9FEF15
:104330002C96E2E10C94721FFC01059061507040D4
:104340000110D8F7809590958E0F9F1F0895FC015E
:104350006150704001900110D8F7809590958E0FB4
:104360009F1F08950F931F93CF93DF93FB0123812A
:1043700021FD03C08FEF9FEF28C022FF16C04681AA
:104380005781248135814217530744F4A081B181BC
:104390009D012F5F3F4F318320838C93268137818E
:1043A0002F5F3F4F3783268310C0EB01092F182F53
:1043B0000084F185E02D0995892BE1F68E819F819E
:1043C00001969F838E83812F902FDF91CF911F9134
:1043D0000F910895FA01AA27283051F1203181F177
:1043E000E8946F936E7F6E5F7F4F8F4F9F4FAF4FFD
:1043F000B1E03ED0B4E03CD0670F781F891F9A1F10
:10440000A11D680F791F8A1F911DA11D6A0F711DC3
:10441000811D911DA11D20D009F468943F912AE0CF
:10442000269F11243019305D3193DEF6CF010895B7
:10443000462F4770405D4193B3E00FD0C9F7F6CFE8
:10444000462F4F70405D4A3318F0495D31FD4052B0
:10445000419302D0A9F7EACFB4E0A6959795879546
:1044600077956795BA95C9F7009761057105089525
:104470009B01AC010A2E06945795479537952795D1
:10448000BA95C9F7620F731F841F951FA01D089569
:1044900011E1C9E5D1E104C0FE010E949C1F2196F3
:0A44A000CA35D107C9F7F894FFCF21
:1044AA00E413DD13FF010100000000000000F01119
:1044BA00D01688113712B9119711AB1100000000FC
:1044CA0025130E137A1300000000D612CD126913B9
:1044DA00564D4450565F317C315F564D4450560D0F
:1044EA000A0073746172740073696E0077675F669D
:1044FA00756E635B25645D3A25732825642900730C
:10450A00717500564D4450525F007C005F564D4411
:10451A0050520D0A00564D4450455F003A323A0057
:10452A005F564D4450450063685B25645D3A2564D7
:10453A00282564487A292025642C25642025642CA2
:10454A0025642C25642C2564006F70725B25645DDC
:0C455A003A7461626C6528256429000039
:107E0000112484B714BE81FFF0D085E080938100F7
:107E100082E08093C00088E18093C10086E0809377
:107E2000C20080E18093C4008EE0C9D0259A86E02C
:107E300020E33CEF91E0309385002093840096BBD3
:107E4000B09BFECF1D9AA8958150A9F7CC24DD24C4
:107E500088248394B5E0AB2EA1E19A2EF3E0BF2EE7
:107E6000A2D0813461F49FD0082FAFD0023811F036
:107E7000013811F484E001C083E08DD089C08234E0
:107E800011F484E103C0853419F485E0A6D080C0E4
:107E9000853579F488D0E82EFF2485D0082F10E0AE
:107EA000102F00270E291F29000F111F8ED06801E7
:107EB0006FC0863521F484E090D080E0DECF843638
:107EC00009F040C070D06FD0082F6DD080E0C81688
:107ED00080E7D80618F4F601B7BEE895C0E0D1E017
:107EE00062D089930C17E1F7F0E0CF16F0E7DF06D8
:107EF00018F0F601B7BEE89568D007B600FCFDCFD4
:107F0000A601A0E0B1E02C9130E011968C91119780
:107F100090E0982F8827822B932B1296FA010C0160
:107F200087BEE89511244E5F5F4FF1E0A038BF0790
:107F300051F7F601A7BEE89507B600FCFDCF97BE46
:107F4000E89526C08437B1F42ED02DD0F82E2BD052
:107F50003CD0F601EF2C8F010F5F1F4F84911BD097
:107F6000EA94F801C1F70894C11CD11CFA94CF0C13
:107F7000D11C0EC0853739F428D08EE10CD085E9AC
:107F80000AD08FE07ACF813511F488E018D01DD067
:107F900080E101D065CF982F8091C00085FFFCCF94
:107FA0009093C60008958091C00087FFFCCF809118
:107FB000C00084FD01C0A8958091C6000895E0E648
:107FC000F0E098E1908380830895EDDF803219F02E
:107FD00088E0F5DFFFCF84E1DECF1F93182FE3DFCA
:107FE0001150E9F7F2DF1F91089580E0E8DFEE27F6
:047FF000FF270994CA
:027FFE00040479
:0400000300007E007B
:00000001FF