:100000000C945A190C9482190C9482190C9482192C
:100010000C9482190C9482190C9482190C948219F4
:100020000C9482190C9482190C9482190C948219E4
:100030000C9482190C94981E0C94231E0C94821913
:100040000C9402210C9482190C944D1D0C94271DC4
:100050000C9482190C94591E0C9482190C948219D8
:100060000C947F1D0C9482190000000025002800CC
:100070002B0000000000240027002A0004040404D0
:100080000404040402020202020203030303030342
:10009000010204081020408001020408102001021F
:1000A00004081020010000020000030004000510F5
:1000B0001010100F10100F0F0F0F0F0F0F0F0F0F4B
:1000C0000F0F0F0F0F0F0F0E0F0F0E0E0E0E0E0E47
:1000D0000E0E0E0E0E0E0E0E0E0E0E0D0E0E0D0D43
:1000E0000D0E0D0D0D0D0D0D0D0D0D0D0D0D0D0C40
:1000F0000D0D0C0C0D0D0C0C0C0C0C0C0C0C0C0C3C
:100100000C0C0C0C0B0C0C0B0B0B0C0B0B0B0B0B38
:100110000B0B0B0B0B0B0B0B0B0B0B0B0B0B0B0A30
:100120000B0B0A0A0B0B0A0A0A0A0A0A0A0A0A0A2B
:100130000A0A0A0A0A0A0A090A0A0A090909090925
:10014000090909090909090909090909090909091F
:100150000909090809090808090908080808080818
:10016000080808080808080808080808080808080F
:100170000808080708080707080807070707070708
:1001800007070707070707070707070707070707FF
:1001900007070706060707060707060606060606F8
:1001A00006060606060606060606060606060606EF
:1001B00006060606050606060506060506060605E3
:1001C00005050505050505050505050505050505DF
:1001D00005050505050505050505050505050505CF
:1001E00004050505040505040505050405050404C5
:1001F00004040404040404040404040404040404BF
:1002000004040404040404040404040404040404AE
:1002100004040404030404040404040303040403A2
:100220000404030304040303040403030303030398
:10023000030303030303030303030303030303038E
:10024000030303030303030303030303030303037E
:100250000303030302030303020303030303030271
:100260000203030202030302030302020303020266
:10027000030302020203020202020202020202025B
:10028000020202020202020202020202020202024E
:10029000020202020202020202020202020202023E
:1002A000020202020202020202020202020202022E
:1002B000010202020202020201010101000000002B
:1002C000FFFFFFFEFEFDFDFDFCFCFCFCFBFAFAFA65
:1002D000F9F9F9F9F8F7F7F7F6F5F5F5F4F3F3F3BB
:1002E000F2F1F1F1EFEFEFEEEDECECECEAEAE9E838
:1002F000E7E7E7E5E4E4E4E2E1E1E0DEDDDDDDDBE4
:10030000DADADAD9D7D6D6D6D3D2D2D2CFCECECBAE
:10031000CACACAC7C6C6C6C6C3C2C2BFBEBFBFBF9F
:10032000BCBBBBBBB9B8B8B6B5B5B6B4B3B3B4B261
:10033000B1B2B2B1B1B1B1B2B1B1B1B1B1B2B2B2A7
:10034000B2B3B3B4B4B5B5B6B7B7B8B8B9BABABB47
:10035000BDBEBEBEC0C2C2C2C4C6C5C6C8CACACA65
:10036000CCCECED1D2D2D2D2D5D6D6D6D9DADADD4B
:10037000DEDEDEE1E2E2E2E5E6E5E6E8E9E9E9E93A
:10038000EBEDECECEFF0EFEFF2F3F2F5F6F5F5F55F
:10039000F7F8F8F8FAFBFAFAFCFDFCFCFEFFFF01A7
:1003A0000101010002030202040504040606060717
:1003B000080707070809080A0B0A0A090B0B0B0BA9
:1003C0000C0C0C0D0E0D0D0D0E0E0E0E0F0F0F0E54
:1003D0000F100F1111101010111111101112111115
:1003E00012121211121312131313131314131313E3
:1003F00013141313141414141514141515141414BD
:1004000014151414151514151515141515151515A1
:10041000151515141515151415151515151515148F
:10042000151515151515151415151515151515157D
:100430001515151415151414151514141515141473
:100440001415141414151415151414141414141468
:100450001414141314141413141413131414131362
:10046000131413131313131313131313131313125C
:100470001313121313131212121212121212121257
:100480001212121112121211121211111111111154
:10049000111111111111111111111111111110114D
:1004A000111010101010101010101010101010104B
:1004B00010100F0F0F100F0F0F0F0F0F0F0F0F0F49
:1004C0000F0F0F0F0F0F0E0F0F0E0E0F0F0E0E0E42
:1004D0000E0E0E0E0E0E0E0D0E0E0D0D0E0E0D0E40
:1004E0000E0D0D0D0D0D0D0D0D0D0D0D0D0D0D0D3B
:1004F0000D0D0C0C0C0C0C0C0C0C0C0C0C0C0C0C3A
:100500000C0C0C0B0C0C0B0C0C0C0B0B0B0B0B0B33
:100510000B0B0B0B0B0B0B0B0B0B0B0A0B0B0A0A2E
:100520000B0B0A0B0B0A0A0A0A0A0A0A0A0A0A0A27
:100530000A0A0A0A0A0A0A090A0A09090909090A21
:100540000A0909090909090909090909090909091A
:100550000909090909090808080808080808080815
:10056000080808080808080808080808080808080B
:100570000808070808080707070707070707070706
:1005800007070707070707070707070707070707FB
:1005900007070707070706070706060707060606F1
:1005A00006060606060606060606060606060606EB
:1005B00006060605060606050606050506060506E0
:1005C00006050505050505050505050505050505DA
:1005D00005050505050505050505050505050505CB
:1005E00005050504050504040505040404050404C3
:1005F00004040404040404040404040404040404BB
:1006000004040404040404040404040404040404AA
:10061000040404040404040404040403040403049C
:100620000404030303040304040303030403030394
:10063000030303030303030303030303030303038A
:10064000030303030303030303030303030303037A
:10065000030303030303030303030302030302026D
:100660000303020303030203030302020203020261
:10067000020202020202020202020202020202025A
:10068000020202020202020202020202020202024A
:10069000020202020202020202020202020202023A
:1006A000020202020202020202020202020202022A
:1006B0000202020102020201010101010000000028
:1006C000FFFFFEFEFEFDFDFDFDFCFCFCFBFAFAFA61
:1006D000F9F9F9F8F7F7F7F7F6F5F5F5F5F3F3F3B8
:1006E000F1F1F1F0F0EFEEEEEDECECECEAE9E9E936
:1006F000E9E7E6E6E6E4E3E3E1E0E0E0DEDCDDDCDA
:10070000DAD9D9D9D6D5D5D5D3D1D1D1CFCDCECDB2
:10071000CBC9CAC9C7C5C6C5C6C3C1C2BFBDBEBE97
:10072000BBBABBBBBBB8B7B8B5B5B5B5B3B3B3B35C
:10073000B2B1B2B2B1B1B1B1B2B1B1B2B1B1B2B2A2
:10074000B3B3B3B4B4B5B5B6B7B8B8B8B9BABBBB40
:10075000BCBDBFBFC1C2C2C2C3C5C6C6C9CACACB5F
:10076000CDCFCECFCFD2D3D3D6D7D7D7D7DADBDB47
:10077000DEDFDFDFDFE2E3E3E3E5E7E6E9EAEAEA3B
:10078000ECEEEDEDEDEFF1F0F0F2F3F3F5F6F6F659
:10079000F8F9F8F8F8FAFBFBFAFDFDFDFF00FFFFA2
:1007A000010201010304030304050504060706060C
:1007B00008080807070909090A0B0A0A0A0B0C0BA3
:1007C0000C0D0C0C0C0D0E0D0D0E0E0E0F100F0F50
:1007D0001010100F0F101110101111111011121113
:1007E00011121212131313121213131312131313E1
:1007F00013131413141414141314141415151414BB
:10080000151514141415151414151514141515159F
:10081000141515151515151515151515141515158A
:10082000141515151515151514151515141515157B
:10083000151515151415151415151514151515146C
:100840001415151415151414151514141414141462
:10085000141414141314141414141413141414135B
:100860001313131313141313131313131313131357
:100870001213131213131212131312121212121252
:10088000121212121212121111121211121211114D
:100890001111111111111111111111111111111049
:1008A0001111101010101010101010101010102630
:1008B00027272626262626252626252525252524DE
:1008C00025252424242424232424232322232322EF
:1008D00022222322232322212222212122222121FA
:1008E00020212120212120201F20201F20201F1F08
:1008F00020201F1E1F1F1E1E1F1F1E1E1E1E1E1D10
:100900001D1D1D1D1C1D1D1C1C1D1D1C1B1C1C1C20
:100910001B1C1C1B1B1B1B1B1C1C1B1A1B1B1B1A25
:100920001B1B1A1A1A1A1A191A1A19191A1A19192A
:100930001919191819191818181918171718181734
:100940001818171717181716171717161717161638
:100950001617161516161515161615151415151441
:100960001415151414141414141514141414141345
:100970001414131314141313131313121313121246
:10098000121212121212121112121211111111114D
:10099000121211111011111011111110101010104C
:1009A000111110101010100F10100F0F0F0F0F0F4C
:1009B00010100F0F0E0F0F0E0E0F0F0E0F0F0E0E4B
:1009C0000D0E0E0E0D0E0E0D0E0E0E0D0E0E0D0D4D
:1009D0000E0E0D0D0D0E0D0D0D0D0D0C0D0D0D0C46
:1009E0000C0C0C0C0C0C0C0C0C0C0C0C0C0C0C0B48
:1009F0000B0C0C0B0B0B0B0B0C0C0B0B0B0C0B0B42
:100A00000A0B0B0A0B0B0B0A0B0B0A0A0B0B0A0A3D
:100A1000090A0A0A090A0A0A0A0A0A09090A0A093B
:100A20000A0A09090A0A09090A0A09090809090931
:100A3000090909080909090808090908090908082C
:100A40000909080808090808070808080808080725
:100A5000070808070708080707070807080807071F
:100A60000707070706070707070707070707070618
:100A7000070707060707070607070606060606060E
:100A80000606060605060606050606060506060609
:100A900005060605060606050606060505060605FC
:100AA00006060505060605050606050505060505EF
:100AB0000405050505050505040403020101000000
:100AC000FEFDFDFDFBFAFAF9F7F6F6F5F4F2F2F2A7
:100AD000F0EFEFEEECEBEBEAE8E7E7E6E4E3E3E286
:100AE000E0DFDFDEDCDBDBDBD9D7D7D7D5D4D4D270
:100AF000D1D1D1CFCECECECCCBCBCBCAC9C9C9C830
:100B0000C7C7C7C7C6C5C6C6C5C4C4C4C3C3C3C395
:100B1000C2C3C3C2C2C2C3C3C2C2C3C2C2C3C3C3AD
:100B2000C3C3C3C4C4C4C4C4C4C5C5C5C5C5C6C67F
:100B3000C6C6C7C7C7C7C8C8C8C8C9C9C9CACACA34
:100B4000CACBCBCBCBCCCCCCCCCDCDCDCDCECECEE1
:100B5000CECFCFCFCFCFD0D0D0D0D0D1D1D1D1D197
:100B6000D1D1D2D2D2D2D2D2D2D2D3D3D3D3D3D361
:100B7000D3D3D3D3D3D3D3D3D3D3D3D3D3D3D3D444
:100B8000D3D3D3D4D3D3D3D4D3D3D3D2D2D3D3D335
:100B9000D2D2D3D3D2D2D2D3D2D1D2D2D1D1D2D136
:100BA000D0D1D1D2D1D0D1D1D0D0D1D1D0CFD0CF3E
:100BB000CECFD0D0CFCFCFCECECECFCFCECECECF4A
:100BC000CECDCECDCCCDCECECDCCCDCECDCCCDCD53
:100BD000CCCCCDCBCBCCCCCDCCCBCCCDCBCBCCCC57
:100BE000CBCBCCCCCBCACBCACACBCBCACACACBCC58
:100BF000CACACBCCCACACBCAC9CACBCAC9CACBCB50
:100C0000CACACBCBCACACBCAC9CACBCAC9CACBCA41
:100C1000C9CACBCCCBCACBCCCBCACBCACACBCBCC28
:100C2000CBCBCCCACACBCCCDCBCBCCCBCBCCCCCB0F
:100C3000CBCCCDCDCCCCCDCDCCCCCDCECDCCCDCEEA
:100C4000CDCDCECECDCDCECDCDCECECFCECECFCEC8
:100C5000CECECFD0CFCFD0D0CFCFD0D0D0CFD0D19D
:100C6000D0D0D1D1D0D0D1D0D0D1D1D2D1D1D2D277
:100C7000D1D1D2D1D1D2D3D3D2D2D3D4D3D3D4D44D
:100C8000D3D3D4D5D4D4D4D5D4D4D5D5D5D4D5D61E
:100C9000D5D5D6D6D5D5D6D7D6D6D7D6D6D6D7D6F5
:100CA000D6D7D7D8D7D7D8D9D8D8D8D9D8D8D9D8C7
:100CB000D8D9D9DAD9D9DADADAD9DAD9D9DADBDA9C
:100CC000DADBDBDADADBDCDBDBDBDCDBDBDCDCDD71
:100CD000DCDCDDDCDCDDDDDEDDDDDEDEDEDEDEDD42
:100CE000DDDEDFDEDEDFDFE0DFDFE0E0DFDFE0DF15
:100CF000DFE0E0E1E0E0E1E1E1E1E1E0E0E1E2E1EB
:100D0000E1E2E2E3E2E2E2E2E2E2E3E3E3E3E3E4BC
:100D1000E3E3E4E4E3E3E4E3E3E4E4E5E4E4E5E596
:100D2000E5E5E5E4E4E5E5E5E5E5E6E6E6E6E6E66F
:100D3000E6E6E7E6E6E7E7E8E7E7E7E8E7E7E8E744
:100D4000E7E8E8E7E7E8E8E9E8E8E9E8E8E9E9E822
:100D5000E8E9E9E9E9E9EAEAEAE9EAEBEAEAEAEAFA
:100D6000EAEAEBEAEAEBEBEAEAEBEBEBEBEBECEBD8
:100D7000EBECECEBEBECECEDECECEDEDECECEDEDB1
:100D8000EDEDEDEEEDEDEDEDEDEDEEEDEDEEEEED8F
:100D9000EDEEEEEEEEEEEFEEEEEEEFEEEEEFEFEE70
:100DA000EEEFEFEFEFEFF0F0EFEFF0F0F0F0F0EF4D
:100DB000EFF0F0F1F0F0F1F1F0F0F1F1F1F0F1F02D
:100DC000F0F1F1F2F1F1F2F2F1F1F2F2F2F1F2F20C
:100DD000F2F2F2F3F2F2F2F3F2F2F3F3F2F2F3F3ED
:100DE000F3F2F3F3F3F3F3F4F3F3F3F4F3F3F4F4D0
:100DF000F3F3F4F4F3F3F4F4F4F4F4F3F3F4F4F5B8
:100E0000F4F4F4F5F4F4F5F4F4F4F5F4F4F5F5F49D
:100E1000F4F5F5F5F4F5F5F5F5F5F6F6F5F5F6F581
:100E2000F5F5F6F6F6F6F6F5F5F6F6F6F5F6F6F667
:100E3000F6F6F6F7F6F6F7F7F6F6F7F7F7F6F7F74A
:100E4000F7F7F7F7F7F7F7F8F7F7F7F8F7F7F8F82E
:100E5000F7F7F8F7F7F7F8F7F7F7F8F8F8F7F8F81B
:100E6000F8F8F8F7F7F8F8F8F7F8F8F9F8F8F9F902
:100E7000F8F8F9F9F8F8F9F8F8F8F9F9F9F8F9F9EA
:100E8000F9F9F9F8F8F9F9F9F8F9F9F9F9F9F9F9D5
:100E9000F9F9FAFAF9F9FAFAF9F9FAF9F9F9FAFABB
:100EA000FAF9FAFAFAFAFAFAFAFAFAF9F9FAFAFAA5
:100EB000F9FAFAFBFAFAFAFBFBFCFCFCFEFFFF0076
:100EC000000203030506060607090A0A0C0D0D0EAB
:100ED0001011111114151515161819191A1C1D1DAC
:100EE0001F21212021232525272828282A2C2B2CA7
:100EF0002C2E2F2F2F3132323334343436373636CE
:100F0000383938383A3A3A3A3B3B3B3B3C3C3C3C3C
:100F10003C3D3C3C3D3D3D3C3C3C3D3C3D3D3C3C0A
:100F20003C3C3C3B3B3B3B3B3B3B3A3A3A3A393916
:100F30003939383838383737373736363635353542
:100F40003534343434333333333232323231313175
:100F50003130303030302F2F2F2F2F2E2E2E2E2E9F
:100F60002E2E2D2D2D2D2D2D2D2D2D2C2C2C2C2CB4
:100F70002C2C2C2C2B2C2C2C2B2C2C2B2C2C2C2BB5
:100F80002C2C2C2C2B2C2C2C2B2C2C2C2D2D2C2CA1
:100F90002D2D2D2C2C2D2D2D2C2D2D2D2E2E2E2D81
:100FA0002E2F2E2E2F2F2E2E2F302F2F30302F2F53
:100FB0003030302F2F30303031313130303131312D
:100FC0003232313130323231313232323333333204
:100FD00033343332323333333233343332343433E1
:100FE00033343433353534343334353433343534C1
:100FF00033353534353635343335353435363534A7
:101000003536353433353534333535343335353499
:10101000333535343535343435353434333434338D
:10102000333434333435343332343433323333338A
:101030003434333232333332333332323333323285
:10104000313232313232313132323131303131308C
:10105000303031302F30302F3031302F30302F2F93
:101060002E2F2F2E2F2F2E2E2F2F2E2D2E2F2E2D9B
:101070002C2D2D2D2E2E2D2C2D2D2C2C2D2D2C2BA5
:101080002C2C2B2B2C2C2B2A2A2B2B2A2B2B2A2AB1
:10109000292A2A292A2A2929292A292829292828BE
:1010A000292928272828272726272726272726FFF4
:1010B000000000000000000001000001010101012A
:1010C0000101010101020101020202020202020207
:1010D00003020203030303030303030303030303E2
:1010E00003030304040303040404040404040404C5
:1010F00004040404050404040405040405050505AA
:101100000505050505060505060606060606060686
:10111000070606070707070708070708080808085B
:1011200008080809090809090909090A0A0A0A0A2E
:101130000A0A0A0A0B0B0B0B0C0B0B0C0C0C0C0CFD
:101140000D0C0D0D0D0D0D0E0E0E0E0F0F0F0F0FC2
:10115000100F0F0F10101010111111111112111288
:101160001312121314131314141414151515151641
:101170001616161717171717181818191919191AF4
:101180001A1A1A1A1B1B1B1C1C1C1C1C1D1D1D1EA5
:101190001E1E1E1E1F1F1F20202020212120212255
:1011A00022222222232423252525252526262626FC
:1011B0002727272828282828292A292A2B2B2B2C9F
:1011C0002C2C2C2D2E2D2E2F2F2F2F303030303138
:1011D00032323233333333333435343536363637CF
:1011E00038373739393939393A3B3A3A3C3C3C3D62
:1011F0003E3D3E3F3F3F3F3F4041414242424244ED
:101200004444444545454545474747474849484A7A
:101210004A4A4A4A4C4C4C4D4D4D4D4F4F4F4F5002
:101220005151515152525254545454555655565589
:10123000575757595959595A5A5A5A5C5C5C5C5C11
:101240005D5D5D5F5F5F5F5F6061616162626262A1
:101250006363636565656565666666666767676837
:1012600068686869696969696969696A6A6A6A6AEC
:101270006A6A6A6A6B6B6B6B6B6B6B6B6C6C6C6CBE
:101280006C6C6C6C6C6C6C6C6D6D6D6D6D6D6D6D96
:101290006D6D6D6D6D6D6D6D6D6D6D6E6E6E6E6E79
:1012A0006E6E6E6E6E6E6E6E6E6E6E6E6E6E6E6E5E
:1012B0006E6E6E6E6E6E6E6E6E6E6E6E6E6E6E6D4F
:1012C0006D6D6D6D6D6D6D6D6D6D6D6D6D6D6D6C4F
:1012D0006C6C6C6C6C6C6C6C6C6C6C6B6B6B6B6B53
:1012E0006B6B6B6A6A6A6A6A6A6A696A6A6A69695E
:1012F0006969686868686868686868676767676672
:101300006666666565656465646563646464646295
:1013100063626161616161606060605F5F5F5E5ECA
:101320005E5E5D5D5D5D5C5C5C5C5B5B5B5B5A59FE
:101330005A5958595858575757575656565655553B
:10134000555555545454545353535352525251506B
:101350005150504F504F4F4E4E4E4D4D4D4D4D4CA8
:101360004C4C4C4B4B4B4A4A4A49494948484748E0
:10137000474746464646464545454544444343421D
:1013800043424142414141404040403F3F3F3E3E59
:101390003E3D3D3C3D3C3B3C3B3B3B3A3A3A3A3997
:1013A00039383837383737373636363535353434D7
:1013B0003434333333323231323131313030302F13
:1013C0002F2F2F2E2E2E2D2D2D2C2C2C2B2B2B2A50
:1013D0002B2A2A2929292928282828272727262689
:1013E00026262525252424242423232223222222C1
:1013F000222121202020201F1F1F1F1E1E1E1D1EF8
:101400001D1D1C1D1C1C1B1C1B1B1B1A1A1A1A1928
:101410001919181918181817171717171616161557
:101420001615151514141414141313131312121281
:10143000121212111111111011101010100F0F0FA4
:101440000F0F0E0E0E0E0E0E0D0D0D0D0D0C0C0CC5
:101450000C0C0C0B0B0B0B0B0B0A0A0A0A0A0A0AE0
:1014600009090909090908080808080808070707F9
:10147000070707060606060606060605050505050E
:10148000050505040404040404040403030303031E
:10149000030302020202020202020201010101012F
:1014A000010101010000000000000000FF00FFFF3B
:1014B000FFFFFFFFFFFFFEFEFEFEFEFEFEFEFEFD47
:1014C000FEFEFDFDFDFDFDFDFDFDFDFCFDFDFDFD4B
:1014D000FCFDFDFCFCFCFCFCFCFCFCFBFCFCFCFC4B
:1014E000FBFCFCFBFBFBFBFBFBFBFBFBFBFBFBFB4A
:1014F000FAFBFAFAFAFAFAFAFAFAFAFAFAFAF9F94D
:10150000F9FAFAF9F9F9F9F9F9F9F9F9F8F9F8F84C
:10151000F8F8F8F8F7F8F8F7F7F7F7F6F7F7F6F658
:10152000F6F6F6F6F6F6F5F5F5F5F5F4F5F5F5F467
:10153000F4F4F4F4F3F4F3F3F3F3F2F2F2F2F3F27B
:10154000F2F2F1F1F1F1F0F0F0F0F0EFF0F0F0EF95
:10155000EFEFEFEEEEEEEDEDEDEDEDECEDEDECECB5
:10156000ECECEBEBEBEBEAEAEAEAE9E9E9E9E9E9D9
:10157000E8E9E9E8E7E8E8E7E6E7E7E6E5E6E5E4FD
:10158000E5E5E4E3E4E4E3E2E3E3E2E1E2E1E1E030
:10159000E0E0DFDFDFDFDEDEDEDEDDDDDDDDDDDC6A
:1015A000DCDCDCDBDADBD9D9D9D9D9D8D8D8D8D7A3
:1015B000D7D7D7D6D5D6D4D4D4D4D4D3D3D3D3D2E3
:1015C000D1D2D1D0D0D0D0CFCFCFCFCDCDCDCDCC2B
:1015D000CCCCCCCBCACACAC9C9C9C9C8C7C7C7C677
:1015E000C6C6C6C5C4C4C4C3C3C3C3C1C1C1C1C0C8
:1015F000BFC0BEBEBEBEBEBDBCBDBCBBBBBBB9B921
:10160000B9B9B8B8B8B8B6B6B6B6B5B4B5B4B3B378
:10161000B3B3B3B2B1B1B0B0B0B0B0AEAEAEADADC9
:10162000ADADABABABABAAA9AAA9A9A8A8A8A8A61F
:10163000A6A6A6A5A5A5A5A3A3A3A3A2A2A2A2A070
:10164000A0A0A09F9F9F9F9D9D9D9C9C9C9C9B9BC1
:101650009B9B9B9999999998989897979797979703
:101660009797979696969695959595959595949422
:101670009494949494949493939393939393939333
:101680009393929292939292929292929292929237
:101690009292929292929291919191919191919133
:1016A000919191919191919191919191919191912A
:1016B000919191919191919191919191919191911A
:1016C00091919192929292929292929292929292FD
:1016D00092929292939393939393939393939394DD
:1016E00094949494949494949594949595959595B4
:1016F0009595959696969697969697979797979885
:10170000989898999999999A9A9A9A9B9A9A9A9B41
:101710009C9B9C9D9D9D9D9E9E9E9E9E9F9F9FA0EF
:10172000A0A0A0A1A1A1A1A2A2A2A2A4A3A4A4A49A
:10173000A5A5A5A6A6A6A6A6A7A7A7A7A8A8A8A93F
:10174000A9A9A9A9AAAAAAAAABABABACACACADADEE
:10175000AEADAEAFAEAFAFB0B0B0B0B0B1B1B1B290
:10176000B2B2B2B2B3B3B3B4B4B4B5B5B6B5B6B63B
:10177000B7B7B7B8B8B8B8B9B9B9B9B9BABABABBDE
:10178000BCBBBCBCBCBDBDBEBDBEBEBEBFBFBFBF83
:10179000C0C0C0C1C1C1C2C2C2C3C3C4C3C4C4C526
:1017A000C5C5C5C6C6C6C6C7C7C8C8C8C9C8C9CAC8
:1017B000C9CACACACBCBCBCCCCCCCCCDCDCDCECE6E
:1017C000CFCECFCFCFD0D0D1D1D1D1D2D2D2D3D30F
:1017D000D3D3D4D4D5D4D5D5D6D5D6D6D6D7D7D7B6
:1017E000D8D8D8D8D9D9D9DADADADBDBDBDBDCDC5C
:1017F000DCDCDDDDDDDEDEDEDEDFDFDFE0E0E0E005
:10180000E1E1E1E1E2E2E2E2E3E3E3E4E3E4E4E5AF
:10181000E4E5E5E5E6E6E6E6E7E7E7E7E7E8E8E862
:10182000E9E9E9E9EAEAEAEAEAEBEBEBEBEBECEC13
:10183000ECECEDEDEDEDEDEEEEEEEEEEEEEFEFEFCE
:10184000EFF0F0F0F0F0F1F1F1F1F1F1F2F2F2F28B
:10185000F2F2F3F3F3F3F3F4F4F4F4F4F4F4F5F54F
:10186000F5F5F5F5F5F6F6F6F6F6F6F7F7F7F7F718
:10187000F7F8F8F8F8F8F8F8F9F9F9F9F9F9F9F9E1
:10188000FAFAFAFAFAFAFAFAFBFBFBFBFBFBFBFCAF
:10189000FCFCFCFCFCFCFCFDFDFDFDFDFDFDFDFD7F
:1018A000FEFEFEFEFEFEFEFEFFFFFFFFFFFFFF341B
:1018B00034353535363636373737383838383939BC
:1018C000393A3A3A3B3B3B3B3C3C3C3C3D3D3D3E60
:1018D0003E3E3E3F3F3F4040404141414142424207
:1018E00043434343444444444545454546464647AF
:1018F00047474748484848494949494A4A4A4A4B5C
:101900004B4B4B4B4C4C4C4C4D4D4D4D4D4E4E4E10
:101910004E4F4F4F4F5050505051515152525252C2
:101920005353535353545454545555555555565673
:10193000565656575757575758585858585959592F
:1019400059595A5A5A5A5A5B5B5B5B5C5C5C5C5CEB
:101950005D5D5D5D5D5D5E5E5E5E5E5E5F5F5F5FA9
:101960005F5F5F606060606061616161616262626F
:10197000626263636363636464646464646465652E
:1019800065656565656666666666666767676767F7
:1019900067676868686868686869696969696969C2
:1019A0006A6A6A6A6A6A6B6B6B6B6B6B6B6B6C6C8B
:1019B0006C6C6C6C6C6C6D6D6D6D6D6D6D6D6E6E5B
:1019C0006E6E6E6E6E6E6F6F6F6F6F6F6F7070702A
:1019D00070707070717171717171717171717272F9
:1019E00072727272727272727273737373737373D0
:1019F00073737374747474747474747475757575A6
:101A0000757575757575767676767676767676767C
:101A10007676777777777777777777777777787856
:101A2000787878787878787878797979797979792F
:101A300079797979797979797A7A7A7A7A7A7A7A0E
:101A40007A7A7A7A7A7A7B7B7B7B7B7B7B7B7B7BEC
:101A50007B7B7B7B7B7B7B7B7B7B7C7C7C7C7C7CD0
:101A60007C7C7C7C7C7C7C7C7C7D7D7D7D7D7D7DAF
:101A70007D7D7D7D7D7D7D7D7D7D7D7D7E7D7E7E93
:101A80007E7E7E7E7E7E7E7E7E7E7E7E7E7E7E7E76
:101A90007E7E7E7E7E7E7F7F7F7F7F7F7F7F7F7F5C
:101AA0007F7F7F7F7F7F7F7F7F7F7F7F7F7F7F7F46
:101AB0007F7F7F7F7F7F7F7F7F7F7E7E7D7D7C7C42
:101AC0007B7A7A79787776757574737271706F6FC7
:101AD0006E6D6C6B6B6A6968676766656463636289
:101AE0006160605F5E5D5D5C5B5A5A59585756563F
:101AF00055545353525150504F4E4D4D4C4B4A4AF2
:101B00004948484746464544444342424140403F95
:101B10003E3D3D3C3B3B3A39393837373635353435
:101B20003333323131302F2F2E2D2D2C2B2B2A29D0
:101B30002928282726262524242323222121202062
:101B40001F1E1E1D1C1C1B1B1A1A191818171716EE
:101B500016151514131312121111100F0F0E0E0D6E
:101B60000D0C0B0B0A0A09090807070606050504F0
:101B70000403020201010000FFFFFEFEFDFDFCFC6C
:101B8000FBFBFAFAF9F9F8F8F7F7F6F6F5F5F4F4DD
:101B9000F3F3F2F2F1F1F0F0EFEFEEEEEDEDEDEC4C
:101BA000ECEBEBEAEAE9E9E8E8E7E7E6E6E5E5E5B4
:101BB000E4E4E3E3E2E2E1E1E0E0E0DFDFDEDEDD1A
:101BC000DDDDDCDCDBDBDADADAD9D9D8D8D8D7D777
:101BD000D6D6D6D5D5D4D4D3D3D3D2D2D2D1D1D0D0
:101BE000D0D0CFCFCECECECDCDCCCCCCCBCBCACA25
:101BF000CAC9C9C9C8C8C8C7C7C6C6C6C5C5C5C475
:101C0000C4C4C3C3C3C2C2C2C1C1C1C0C0BFBFBFBD
:101C1000BFBEBEBEBDBDBDBCBCBCBCBBBBBBBABAFF
:101C2000BAB9B9B9B8B8B8B8B7B7B7B6B6B6B6B53D
:101C3000B5B5B5B4B4B4B4B3B3B3B3B2B2B2B2B26F
:101C4000B1B1B1B1B0B0B0B0AFAFAFAFAEAEAEAE9C
:101C5000AEADADADADADADACACACACACACABABABBF
:101C6000ABABABAAAAAAAAAAAAA9A9A9A9A9A9A9D8
:101C7000A9A8A8A8A8A8A8A8A8A8A7A7A7A7A7A7E9
:101C8000A7A7A7A7A7A7A7A6A6A6A6A6A6A6A6A6ED
:101C9000A6A6A6A6A6A6A6A6A6A6A6A6A6A5A5A5E7
:101CA000A5A5A5A5A5A5A5A5A5A5A5A5A6A5A6A6E1
:101CB000A6A6A6A6A6A6A6A6A6A6A6A6A6A6A6A6C4
:101CC000A6A6A6A6A6A6A6A6A6A6A6A6A7A7A7A7B0
:101CD000A7A7A7A7A7A7A7A7A7A7A7A8A8A8A8A88F
:101CE000A8A8A8A8A8A8A8A8A8A9A9A9A9A9A9A96D
:101CF000A9A9A9A9A9AAAAAAAAAAAAAAAAAAAAAA49
:101D0000AAABABABABABABABABABABABACACACAC20
:101D1000ACACACACACACADADADADADADADADADADF9
:101D2000ADAEAEAEAEAEAEAEAEAEAEAFAFAFAFAFCF
:101D3000AFAFAFAFAFB0B0B0B0B0B0B0B0B0B0B0A8
:101D4000B1B1B1B1B1B1B1B1B1B1B2B2B2B2B2B27D
:101D5000B2B2B2B2B3B3B3B3B3B3B3B3B3B3B4B455
:101D6000B4B4B4B4B4B4B4B4B4B5B5B5B5B5B5B52C
:101D7000B5B5B5B6B6B6B6B6B6B6B6B6B6B7B7B703
:101D8000B7B7B7B7B7B7B7B7B8B8B8B8B8B8B8B8DB
:101D9000B8B8B8B9B9B9B9B9B9B9B9B9B9B9BABAB4
:101DA000BABABABABABABABABABBBBBBBBBBBBBB8C
:101DB000BBBBBBBBBCBCBCBCBCBCBCBCBCBCBCBD66
:101DC000BDBDBDBDBDBDBDBDBDBDBDBEBEBEBEBE3E
:101DD000BEBEBEBEBEBEBFBFBFBFBFBFBFBFBFBF19
:101DE000BFBFC0C0C0C0C0C0C0C0C0C0C0C0C1C1F3
:101DF000C1C1C1C1C1C1C1C1C1C1C2C2C2C2C2C2CD
:101E0000C2C2C2C2C2C2C2C3C3C3C3C3C3C3C3C3A9
:101E1000C3C3C3C4C4C4C4C4C4C4C4C4C4C4C4C485
:101E2000C5C5C5C5C5C5C5C5C5C5C5C5C5C6C6C65F
:101E3000C6C6C6C6C6C6C6C6C6C6C7C7C7C7C7C73C
:101E4000C7C7C7C7C7C7C7C8C8C8C8C8C8C8C8C819
:101E5000C8C8C8C8C8C9C9C9C9C9C9C9C9C9C9C9F7
:101E6000C9C9CACACACACACACACACACACACACACAD4
:101E7000CBCBCBCBCBCBCBCBCBCBCBCBCBCBCCCCB0
:101E8000CCCCCCCCCCCCCCCCCCCCCCCCCCCDCDCD8F
:101E9000CDCDCDCDCDCDCDCDCDCDCDCECECECECE6D
:101EA000CECECECECECECECECECECFCFCFCFCFCF4C
:101EB000CFCFCFCFCFCFCFCFCFD0D0D0D0D0D0D02B
:101EC000D0D0D0D0D0D0D0D0D1D1D1D1D1D1D1D10A
:101ED000D1D1D1D1D1D1D1D2D2D2D2D2D2D2D2D2E9
:101EE000D2D2D2D2D2D2D2D3D3D3D3D3D3D3D3D3C9
:101EF000D3D3D3D3D3D3D4D4D4D4D4D4D4D4D4D4A8
:101F0000D4D4D4D4D4D4D5D5D5D5D5D5D5D5D5D587
:101F1000D5D5D5D5D5D5D6D6D6D6D6D6D6D6D6D667
:101F2000D6D6D6D6D6D6D7D7D7D7D7D7D7D7D7D747
:101F3000D7D7D7D7D7D7D8D8D8D8D8D8D8D8D8D827
:101F4000D8D8D8D8D8D8D8D9D9D9D9D9D9D9D9D908
:101F5000D9D9D9D9D9D9D9DADADADADADADADADAE8
:101F6000DADADADADADADADBDBDBDBDBDBDBDBDBC8
:101F7000DBDBDBDBDBDBDCDCDCDCDCDCDCDCDCDCA7
:101F8000DCDCDCDCDDDDDDDDDDDDDDDDDDDDDDDD85
:101F9000DDDDDEDEDEDEDEDEDEDEDEDEDEDFDFDF60
:101FA000DFDFDFDFDFDFDFE0E0E0E0E0E0E0E0E038
:101FB000E1E1E1E1E1E1E1E1E2E2E2E2E2E2E2E308
:101FC000E3E3E3E3E3E3E4E4E4E4E4E5E5E5E5E5D2
:101FD000E6E6E6E6E6E7E7E7E7E7E8E8E8E8E9E98E
:101FE000E9E9EAEAEAEAEBEBEBEBECECECEDEDED40
:101FF000EDEEEEEEEFEFEFF0F0F0F1F1F1F2F2F2E4
:10200000F3F3F3F4F4F4F5F5F5F6F6F6F7F7F8F87C
:10201000F8F9F9F9FAFAFBFBFBFCFCFDFDFDFEFE0D
:10202000FFFFFF0000000101020202030304040499
:102030000505060606070708080909090A0A0B0B21
:102040000B0C0C0D0D0D0E0E0F0F0F1010101111AB
:102050001212121313131414151516161617171837
:1020600018181919191A1A1B1B1B1C1C1D1D1D1EC3
:102070001E1E1F1F1F202021212022222223232455
:1020800024242525252626262727272828282929E8
:10209000292A2A2A2B2B2B2C2C2C2D2D2D2E2E2E83
:1020A0002F2F2F303030313131323232333333163B
:1020B00016161717171717181818181819191919A5
:1020C0001A1A1A1A1A1B1B1B1B1B1B1C1C1C1C1D5F
:1020D0001D1D1D1E1E1E1E1E1F1F1F1F1F20202018
:1020E00020202121202121222222222323232323D5
:1020F000242424242425252525252626262626268F
:102100002727272727282828282829292929292A4D
:102110002A2A2A2A2B2B2B2B2B2C2C2C2C2C2D2D0A
:102120002D2D2D2E2E2E2E2E2F2F2F2F2F303030C7
:102130003030303131313131313232323232333389
:102140003333333434343434343535353535363649
:10215000363636363737373737373738383838380E
:1021600039393939393A3A3A3A3A3A3B3B3B3B3BCF
:102170003C3C3C3C3C3C3D3D3D3D3D3D3D3E3E3E92
:102180003E3E3E3F3F3F3F3F3F404040404040415A
:10219000414141414142424242424243434343431F
:1021A00043444444444444444545454545454646E6
:1021B00046464646464747474747474848484848AF
:1021C000484949494949494A4A4A4A4A4A4B4B4B74
:1021D0004B4B4B4B4C4C4C4C4C4C4C4C4D4D4D4D3F
:1021E0004D4D4E4E4E4E4E4E4E4F4F4F4F4F4F4F0A
:1021F00050505050505051515151515151515252D3
:10220000525252525353535353535353545454549E
:10221000545454555555555555555656565656566B
:102220005657575757575757575858585858585838
:1022300059595959595959595A5A5A5A5A5A5A5B05
:102240005B5B5B5B5B5B5B5C5C5C5C5C5C5C5C5CD5
:102250005D5D5D5D5D5D5D5E5E5E5E5E5E5E5E5EA5
:102260005F5F5F5F5F5F6060606060606060616172
:102270006161616161616162626262626262626245
:102280006263636363636363636464646464646418
:1022900065656565656565656566666666666666E7
:1022A00066676767676767676767686868686868B9
:1022B00068686868686868676767676666666565AE
:1022C000646464636362626261616060605F5F5FF7
:1022D0005E5E5D5D5D5C5C5C5B5B5A5A5A59595948
:1022E0005858585757565656555554545453535397
:1022F00052525151515050504F4F4F4E4E4E4D4DE6
:102300004D4C4C4C4B4B4B4A4A4A4949484848472C
:102310004747464646454545444444434343424275
:10232000424141414040403F3F3E3E3E3D3D3D3DBC
:102330003C3C3C3B3B3B3A3A3A3939393838383700
:102340003737363636353535353434343333333242
:102350003232313131313030302F2F2F2E2E2E2D81
:102360002D2D2C2C2C2B2B2B2B2A2A2A29292928C2
:102370002828272727262626262525252424242401
:10238000232323222222222121202020201F1F1F3D
:102390001F1E1E1E1D1D1D1D1C1C1C1B1B1B1B1A76
:1023A0001A1A1919191918181817171717161616AF
:1023B00015151515141414141313131212121211E7
:1023C0001111101010100F0F0F0F0E0E0E0D0D0D1E
:1023D0000D0C0C0C0C0B0B0B0B0A0A0A0A09090951
:1023E0000808080807070707060606060505050585
:1023F00004040403030303020202020201010101B7
:10240000000000FFFFFFFFFEFEFEFEFDFDFDFDFDE7
:10241000FCFCFCFCFBFBFBFBFAFAFAFAF9F9F9F914
:10242000F8F8F8F8F7F7F7F7F6F6F6F6F5F5F5F544
:10243000F5F4F4F4F4F3F3F3F3F3F2F2F2F2F1F16E
:10244000F1F1F0F0F0F0EFEFEFEFEEEEEEEEEEED9B
:10245000EDEDEDEDECECECECEBEBEBEBEBEAEAEAC3
:10246000EAE9E9E9E9E8E8E8E8E8E7E7E7E7E7E6ED
:10247000E6E6E6E5E5E5E5E5E4E4E4E4E4E3E3E314
:10248000E3E3E2E2E2E2E1E1E1E1E1E0E0E0E0E039
:10249000DFDFDFDFDEDEDEDEDEDDDDDDDDDDDCDC61
:1024A000DCDCDCDBDBDBDBDBDADADADADAD9D9D984
:1024B000D9D9D8D8D8D8D8D7D7D7D7D6D6D6D6D6A8
:1024C000D5D5D5D5D5D4D4D4D4D4D4D3D3D3D3D3CC
:1024D000D3D2D2D2D2D2D1D1D1D1D1D0D0D0D0D0EA
:1024E000CFCFCFCFCFCFCECECECECECDCDCDCDCD0B
:1024F000CDCCCCCCCCCCCBCBCBCBCBCACACACACA2A
:10250000CAC9C9C9C9C9C9C8C8C8C8C8C8C7C7C746
:10251000C7C7C6C6C6C6C6C6C5C5C5C5C5C5C4C463
:10252000C4C4C4C3C3C3C3C3C3C2C2C2C2C2C2C180
:10253000C1C1C1C1C1C1C0C0C0C0C0BFBFBFBFBF9A
:10254000BFBEBEBEBEBEBEBDBDBDBDBDBDBCBCBCB6
:10255000BCBCBCBCBBBBBBBBBBBBBABABABABABACD
:10256000B9B9B9B9B9B9B9B8B8B8B8B8B8B8B7B7E6
:10257000B7B7B7B7B7B7B6B6B6B6B6B6B6B6B5B5F7
:10258000B5B5B5B5B4B4B4B4B4B4B4B3B3B3B3B30C
:10259000B3B3B3B3B2B2B2B2B2B2B2B2B2B2B1B119
:1025A000B1B1B1B1B1B1B1B1B1B1B1B1B0B0B0B01F
:1025B000B0B0B0B0B0B0B0B0B0B0B0B0B0B0B0B01B
:1025C000B0B0AFAFAFAFAFAFAFAFAFAFAFAFAFAF19
:1025D000AFAFAFAFB0B0B0B0B0B0B0B0B0B0B0B0FF
:1025E000B0B0B0B0B0B0B0B0B0B0B0B0B0B0B1B1E9
:1025F000B1B1B1B1B1B1B1B1B1B1B1B1B1B2B2B2C8
:10260000B2B2B2B2B2B2B2B2B2B3B3B3B3B3B3B3A3
:10261000B3B3B3B3B3B4B4B4B4B4B4B4B4B4B4B47F
:10262000B5B5B5B5B5B5B5B5B5B5B5B6B6B6B6B655
:10263000B6B6B6B6B6B7B7B7B7B7B7B7B7B7B7B72F
:10264000B8B8B8B8B8B8B8B8B8B8B8B9B9B9B9B905
:10265000B9B9B9B9B9B9BABABABABABABABABABAE0
:10266000BABBBBBBBBBBBBBBBBBBBBBBBCBCBCBCB7
:10267000BCBCBCBCBCBCBCBCBDBDBDBDBDBDBDBD92
:10268000BDBDBDBEBEBEBEBEBEBEBEBEBEBEBEBF6C
:10269000BFBFBFBFBFBFBFBFBFBFBFC0C0C0C0C045
:1026A000C0C0C0C0C0C0C1C1C1C1C1C1C1C1C1C120
:1026B000C1C1C1C2C2C2C2C2C2C2C2C2C2C2C2C3FC
:1026C000C3C3C3C3C3C3C3C3C3C3C3C4C4C4C4C4D5
:1026D000C4C4C4C4C4C4C4C4C5C5C5C5C5C5C5C5B2
:1026E000C5C5C5C5C5C6C6C6C6C6C6C6C6C6C6C68F
:1026F000C6C6C6C7C7C7C7C7C7C7C7C7C7C7C7C76D
:10270000C8C8C8C8C8C8C8C8C8C8C8C8C8C8C9C947
:10271000C9C9C9C9C9C9C9C9C9C9C9CACACACACA24
:10272000CACACACACACACACACACACBCBCBCBCBCB03
:10273000CBCBCBCBCBCBCBCCCCCCCCCCCCCCCCCCE0
:10274000CCCCCCCCCCCDCDCDCDCDCDCDCDCDCDCDBE
:10275000CDCDCDCECECECECECECECECECECECECF9B
:10276000CFCFCFCFCFCFCFCFCFCFCFD0D0D0D0D074
:10277000D0D0D0D0D0D0D1D1D1D1D1D1D1D1D1D14F
:10278000D2D2D2D2D2D2D2D2D3D3D3D3D3D3D3D321
:10279000D4D4D4D4D4D4D4D5D5D5D5D5D5D6D6D6ED
:1027A000D6D6D6D7D7D7D7D7D7D8D8D8D8D8D8D9B4
:1027B000D9D9D9D9DADADADADBDBDBDBDBDCDCDC72
:1027C000DCDCDDDDDDDDDEDEDEDEDFDFDFDFE0E029
:1027D000E0E0E0E1E1E1E1E2E2E2E2E3E3E3E4E4DC
:1027E000E4E4E5E5E5E5E6E6E6E6E7E7E7E7E8E889
:1027F000E8E8E9E9E9EAEAEAEAEBEBEBEBECECEC36
:10280000ECEDEDEDEDEEEEEEEFEFEFEFF0F0F0F1E1
:10281000F1F1F1F2F2F2F2F3F3F3F3F4F4F4F4F58C
:10282000F5F5F5F6F6F6F6F7F7F7F8F8F8F8F9F93A
:10283000F9F9FAFAFAFAFBFBFBFBFCFCFCFCFDFDE8
:10284000FDFEFEFEFEFFFFFFFFFF00000000010196
:102850000101020202030303030304040404050547
:1028600005050606060607070707080808080909F8
:1028700009090A0A0A0A0B0B0B0B0B0C0C0C0C0DAA
:102880000D0D0D0D0E0E0E0E0F0F0F0F0F10101061
:102890001011111111121212121313131313141415
:1028A00014141515151515161616161717171700E3
:1028B00000000101010202030303040405050506EB
:1028C0000607070708080909090A0A0A0B0B0C0C76
:1028D0000C0D0D0E0E0E0F0F101010111112121202
:1028E000131313141415151516161717171818188F
:1028F00019191A1A1A1B1B1C1C1C1D1D1D1E1E1F1C
:102900001F1F2020202121222222232324242425AA
:102910002525262627272728282829292A2A2A2B39
:102920002B2B2C2C2C2D2D2E2E2E2F2F2F303030CC
:10293000313132323233333334343435353636365E
:102940003737373838383939393A3A3A3B3B3B3CF4
:102950003C3D3D3D3E3E3E3F3F3F4040404141418A
:102960004242424343434444444545454646464724
:1029700047474848484949494A4A4A4A4B4B4B4CC1
:102980004C4C4D4D4D4E4E4E4F4F4F4F5050505161
:102990005151525252535353535454545555555503
:1029A00056565657575757585858595959595A5AA9
:1029B0005A5B5B5B5B5C5C5C5C5D5D5D5E5E5E5E52
:1029C0005F5F5F5F606060606161616162626262FF
:1029D00063636363646464646565656566666666AF
:1029E00067676767676868686869696969696A6A63
:1029F0006A6A6B6B6B6B6B6C6C6C6C6C6D6D6D6D1C
:102A00006D6E6E6E6E6E6F6F6F6F6F7070707070D8
:102A10007171717171717272727272737373737397
:102A2000737474747474747575757575757576765C
:102A30007676767677777777777777777878787826
:102A400078787879797979797979797A7A7A7A7AF4
:102A50007A7A7A7A7B7B7B7B7B7B7B7B7B7B7C7CC8
:102A60007C7C7C7C7C7C7C7C7C7D7D7D7D7D7D7D9F
:102A70007D7D7D7D7D7D7E7E7E7E7E7E7E7E7E7E7C
:102A80007E7E7E7E7E7E7E7F7F7F7F7F7F7F7F7F5D
:102A90007F7F7F7F7F7F7F7F7F7F7F7F7F7F7F7F46
:102AA0007F7F7F7F7F7F7F7F7F7F7F7F7F7F7F7F36
:102AB0007F7F7F7F7F7F7F7F7F7F7F7F7F7F7F7F26
:102AC0007F7F7F7F7F7F7F7F7F7F7F7F7F7F7F7F16
:102AD0007F7F7F7F7F7F7F7F7E7E7E7E7E7E7E7E0E
:102AE0007E7E7E7E7E7E7E7E7E7D7D7D7D7D7D7D0D
:102AF0007D7D7D7D7D7D7C7C7C7C7C7C7C7C7C7C10
:102B00007C7B7B7B7B7B7B7B7B7B7B7A7A7A7A7A19
:102B10007A7A7A7A79797979797979797878787825
:102B20007878787777777777777776767676767638
:102B3000767575757575757574747474747473734E
:102B40007373737372727272727171717171717069
:102B5000707070706F6F6F6F6F6E6E6E6E6E6D6D8A
:102B60006D6D6D6C6C6C6C6C6B6B6B6B6B6A6A6AAD
:102B70006A6A6969696968686868676767676766D4
:102B80006666666565656564646464636363636201
:102B900062626261616161606060605F5F5F5F5E31
:102BA0005E5E5E5D5D5D5C5C5C5C5B5B5B5B5A5A64
:102BB0005A5959595958585857575757565656559C
:102BC00055555554545453535353525252515151D5
:102BD0005050504F4F4F4F4E4E4E4D4D4D4C4C4C14
:102BE0004B4B4B4A4A4A4A49494948484847474754
:102BF0004646464545454444444343434242424198
:102C000041414040403F3F3F3E3E3E3D3D3D3C3CDC
:102C10003B3B3B3A3A3A3939393838383737373627
:102C20003636353534343433333332323231313071
:102C300030302F2F2F2E2E2E2D2D2C2C2C2B2B2BBE
:102C40002A2A2A292928282827272726262525250C
:102C5000242424232322222222212120201F1F1F5B
:102C60001E1E1D1D1D1C1C1C1B1B1A1A1A191918AF
:102C70001818171717161615151514141313131201
:102C8000121211111010100F0F0E0E0E0D0D0C0C54
:102C90000C0B0B0A0A0A09090908080707070606A8
:102CA000050505040403030302020101010000FFFE
:102CB000FFFFFEFEFEFDFDFCFCFCFBFBFAFAFAF951
:102CC000F9F8F8F8F7F7F6F6F6F5F5F5F4F4F3F3A6
:102CD000F3F2F2F1F1F1F0F0EFEFEFEEEEEDEDEDFA
:102CE000ECECECEBEBEAEAEAE9E9E8E8E8E7E7E74D
:102CF000E6E6E5E5E5E4E4E3E3E3E2E2E2E1E1E0A0
:102D0000E0E0DFDFDFDEDEDDDDDDDCDCDBDBDBDAF0
:102D1000DADAD9D9D8D8D8D7D7D7D6D6D6D5D5D440
:102D2000D4D4D3D3D3D2D2D1D1D1D0D0D0CFCFCF8E
:102D3000CECECDCDCDCCCCCCCBCBCBCACAC9C9C9DC
:102D4000C8C8C8C7C7C7C6C6C6C5C5C5C4C4C4C326
:102D5000C3C2C2C2C1C1C1C0C0C0BFBFBFBEBEBE70
:102D6000BDBDBDBCBCBCBBBBBBBABABAB9B9B9B8B6
:102D7000B8B8B7B7B7B6B6B6B5B5B5B5B4B4B4B3F9
:102D8000B3B3B2B2B2B1B1B1B0B0B0B0AFAFAFAE39
:102D9000AEAEADADADACACACACABABABAAAAAAAA77
:102DA000A9A9A9A8A8A8A8A7A7A7A6A6A6A6A5A5B1
:102DB000A5A4A4A4A4A3A3A3A3A2A2A2A1A1A1A1E8
:102DC000A0A0A0A09F9F9F9F9E9E9E9E9D9D9D9D1B
:102DD0009C9C9C9C9B9B9B9B9A9A9A9A999999994B
:102DE0009898989898979797979696969696959577
:102DF000959594949494949393939393929292929E
:102E000092919191919190909090908F8F8F8F8FC0
:102E10008E8E8E8E8E8E8D8D8D8D8D8C8C8C8C8CE1
:102E20008C8B8B8B8B8B8B8A8A8A8A8A8A8A8989FC
:102E30008989898989888888888888888787878711
:102E40008787878686868686868686858585858524
:102E50008585858584848484848484848484838330
:102E60008383838383838383838282828282828239
:102E7000828282828282818181818181818181813C
:102E8000818181818181818080808080808080803B
:102E90008080808080808080808080808080808032
:102EA0008080808080808080808080808080808022
:102EB0008080808080808080808080808080808012
:102EC0008080808080808080808080808080808002
:102ED00080808080808080808181818181818181EA
:102EE00081818181818181818182828282828282CB
:102EF00082828282828283838383838383838383A8
:102F0000838484848484848484848485858585857D
:102F10008585858586868686868686868787878751
:102F2000878787888888888888888889898989891F
:102F3000898A8A8A8A8A8A8A8B8B8B8B8B8B8C8CE8
:102F40008C8C8C8C8D8D8D8D8D8E8E8E8E8E8E8FAD
:102F50008F8F8F8F9090909090919191919192926C
:102F60009292929393939393949494949495959529
:102F700095969696969697979797989898989899E1
:102F80009999999A9A9A9A9B9B9B9B9C9C9C9C9D95
:102F90009D9D9D9E9E9E9E9F9F9F9FA0A0A0A0A145
:102FA000A1A1A1A2A2A2A3A3A3A3A4A4A4A4A5A5F2
:102FB000A5A6A6A6A6A7A7A7A8A8A8A8A9A9A9AA9A
:102FC000AAAAAAABABABACACACACADADADAEAEAE41
:102FD000AFAFAFB0B0B0B0B1B1B1B2B2B2B3B3B3E2
:102FE000B4B4B4B5B5B5B5B6B6B6B7B7B7B8B8B882
:102FF000B9B9B9BABABABBBBBBBCBCBCBDBDBDBE1E
:10300000BEBEBFBFBFC0C0C0C1C1C1C2C2C2C3C3B8
:10301000C4C4C4C5C5C5C6C6C6C7C7C7C8C8C8C94D
:10302000C9C9CACACBCBCBCCCCCCCDCDCDCECECFE3
:10303000CFCFD0D0D0D1D1D1D2D2D3D3D3D4D4D476
:10304000D5D5D5D6D6D7D7D7D8D8D8D9D9DADADA08
:10305000DBDBDBDCDCDDDDDDDEDEDEDFDFE0E0E098
:10306000E1E1E2E2E2E3E3E3E4E4E5E5E5E6E6E725
:10307000E7E7E8E8E8E9E9EAEAEAEBEBECECECEDB3
:10308000EDEDEEEEEFEFEFF0F0F1F1F1F2F2F3F340
:10309000F3F4F4F5F5F5F6F6F6F7F7F8F8F8F9F9CC
:1030A000FAFAFAFBFBFCFCFCFDFDFEFEFEFFFF0056
:1030B00000000076A90800512D090004B909000597
:1030C0004D0A00D3E90A00F48F0B00F63F0C0070A4
:1030D000FA0C0000C00D004F910E00116F0F00029E
:1030E0005A1000EC521100A35A1200087213000A81
:1030F0009A1400A6D31500E91F1700ED7F1800E011
:10310000F4190000801B009E221D0022DE1E000418
:10311000B42000D8A5220046B5240010E4260015EE
:103120003429004DA72B00D23F2E00DAFF3000C01B
:10313000E93300FFFF36003D453A0044BC3D00083E
:10314000684100AF4B45008C6A490020C84D002AF9
:103150006852009C4E5700A47F5C00B4FF61008061
:10316000D36700FFFF6D007B8A740089787B0011B4
:10317000D082005F978A0018D5920041909B00533F
:10318000D0A400339DAE0046FFB80069FFC3000025
:10319000A7CF00FDFFDB00F414E9000BF1F60020DF
:1031A000A00501BE2E150130AA250182203701A6F7
:1031B000A04901663A5D018CFE7101D2FE870100D3
:1031C0004E9F01FAFFB701F229D20120E2ED014042
:1031D000400B027C5D2A024C544B0204416E024CAF
:1031E000419302CC74BA0228FDE302A4FD0F030050
:1031F0009C3E03F4FF6F03E453A40340C4DB03804D
:10320000801604F8BA540498A896040882DC04983E
:1032100082260598E9740530FAC70548FB1F0600A9
:10322000387D06E8FFDF06C8A748078088B7070093
:10323000012D08F075A90830512D091004B9093085
:10324000054D0AA0D3E90AA0F48F0B00F63F0CC08D
:103250006FFA0C70FFBF0D804E910EB0106F0FA073
:10326000015A10E0EB521160A25A1220087213604A
:103270000A9A1440A7D31540E81F1700EC7F188066
:10328000DFF419E0FE7F1B009D221D6021DE1E4041
:1032900003B420C0D7A522C044B5244010E426C002
:1032A000143429804EA72B80D23F2E00D8FF300047
:1032B00030242F2411241FBECFEFD8E0DEBFCDBFB6
:1032C00011E0A0E0B1E0E2EEF0E502C005900D9261
:1032D000AC37B107D9F726E0ACE7B1E001C01D92E9
:1032E000A339B207E1F719E1C9E5D9E104C0219793
:1032F000FE010E948125C835D107C9F70E944C21E3
:103300000C9464280C940000089580E090E00895E7
:10331000FC01538D448D252F30E0842F90E0821BDB
:10332000930B541710F0CF96089501970895FC0160
:10333000918D828D981761F0828DDF01A80FB11DEC
:103340005D968C91928D9F5F9F73928F90E0089510
:103350008FEF9FEF0895FC01918D828D981731F0CA
:10336000828DE80FF11D858D90E008958FEF9FEF1E
:103370000895FC01918D228D892F90E0805C9F4FF4
:10338000821B91098F739927089589E092E00E942A
:10339000B91921E0892B09F420E0822F0895FC015E
:1033A000848DDF01A80FB11DA35ABF4F2C91848DCE
:1033B00090E001968F739927848FA689B7892C9303
:1033C000A089B1898C9180648C93938D848D98139E
:1033D00006C00288F389E02D80818F7D8083089567
:1033E000EF92FF920F931F93CF93DF93EC0181E055
:1033F000888F9B8D8C8D981305C0E889F989808111
:1034000085FD24C0F62E0B8D10E00F5F1F4F0F734C
:103410001127E02E8C8DE8120CC00FB607FCFACFF6
:10342000E889F989808185FFF5CFCE010E94CF1907
:10343000F1CF8B8DFE01E80FF11DE35AFF4FF082B3
:103440000B8FEA89FB898081806207C0EE89FF8942
:103450006083E889F98980818064808381E090E0DD
:10346000DF91CF911F910F91FF90EF900895CF932F
:10347000DF93EC01888D8823C9F0EA89FB8980817C
:1034800085FD05C0A889B9898C9186FD0FC00FB64E
:1034900007FCF5CF808185FFF2CFA889B9898C918F
:1034A00085FFEDCFCE010E94CF19E7CFDF91CF91FD
:1034B000089580E090E0892B29F00E94C5198111C0
:1034C0000C9400000895CF93DF9390E0FC01E05747
:1034D000FF4F2491FC01E458FF4F8491882361F150
:1034E00090E0880F991FFC01EE58FF4FC591D491D1
:1034F000FC01E859FF4FA591B491611109C09FB734
:10350000F8948881209582238883EC912E230BC028
:10351000623061F49FB7F8943881822F80958323BD
:103520008883EC912E2B2C939FBF06C08FB7F89405
:10353000E8812E2B28838FBFDF91CF91089584E0FF
:10354000809396018FEF809397011092B9011092AA
:10355000B8011092BA0185EE8093BC00089582E014
:10356000809396018FEF809397011092B901809319
:10357000B80181E08093BA0185EE8093BC00089584
:1035800085ED8093BC008091BC0084FDFCCF8091D0
:103590009601809395011092960180919501833058
:1035A00011F40C949F1A80919501813011F40C94C0
:1035B000AF1A0895CF93DF931F92CDB7DEB78091F6
:1035C000AC029091AD028F3F2FEF920761F0FC01AA
:1035D000EA55FD4F2081298301979093AD02809396
:1035E000AC02898101C08FEF8093000180910001BE
:1035F0008F3F59F0809100018770806480937C0038
:1036000080917A00806480937A000F90DF91CF914F
:10361000089580E090E061E070E040917E009B01C1
:10362000082E01C0220F0A94EAF7242B20937E0073
:1036300001968630910589F708957770FC0182859F
:103640009385FC01E60FF71F84910895CF92DF92D6
:10365000EF92FF920F931F93DC0116960D911D912F
:103660002D913C9119971296CD90DD90ED90FC90A4
:1036700015970C0D1D1D2E1D3F1D12960D931D93AC
:103680002D933C9315978BE0440F551F661F771FB2
:103690008A95D1F7040F151F261F371FC901977090
:1036A0001A96ED91FC911B97E80FF91F84911F91D9
:1036B0000F91FF90EF90DF90CF900895DC011D9661
:1036C0002D913C911E97232B11F40C941D1BDC01B2
:1036D0001C96EC91F0E0EE0FFF1FE25FFE4F0190B1
:1036E000F081E02DCB0197700994CF92DF92EF9299
:1036F000FF920F931F93FC0185859685892B49F4D2
:10370000CF011F910F91FF90EF90DF90CF900C941D
:10371000261B0681178120853185C280D380E480F5
:10372000F5800C0D1D1D2E1D3F1D02831383248368
:103730003583E485F0E0EE0FFF1FE25FFE4FDB0113
:10374000CA014BE0880F991FAA1FBB1F4A95D1F7EA
:10375000BC01CD01600F711F821F931F0190F0818A
:10376000E02D97701F910F91FF90EF90DF90CF9019
:103770000994DC0112964D915D916D917C911597A4
:103780009B0137701A96ED91FC911B97E20FF31F86
:1037900084910895DC011D962D913C911E97232B59
:1037A00011F40C94B91B2D9ADC011C96EC911C971A
:1037B000F0E0EE0FFF1FE25FFE4F12966D917D91DC
:1037C0008D919C9115970190F081E02D977009944F
:1037D000CF92DF92EF92FF920F931F93CF93DF93DD
:1037E000EC018B018A819B8101969B838A832C81CA
:1037F0003D818217930728F11B821A82FB01818188
:1038000092819D838C83C8A8D9A8EAA8FBA8678168
:10381000862F90E0A0E0B0E0DC0199278827BC016A
:10382000CD016C197D098E099F0923813481458161
:1038300056810E940E252CAB3DAB4EAB5FAB1FA754
:103840000EA7DF91CF911F910F91FF90EF90DF9026
:10385000CF9008958115944010F080E0089588E796
:1038600008958155974DFC01849108950F931F93FE
:10387000CF93DF931F92CDB7DEB7182F062F498362
:103880000E94321F4981602F641B6C5F812F0E9450
:10389000321F67E0600F812F0F90DF91CF911F9152
:1038A0000F910C94321F0F931F93CF93DF93CDB7DB
:1038B000DEB7A1970FB6F894DEBF0FBECDBF86EB83
:1038C00094E040E050E0440F551FFC01E75BFF4FE0
:1038D00020813181232B09F04160825B9F4F26E0DC
:1038E0008A38920781F7506860E070E019A2CE0133
:1038F00081968A019B010170112722273327769533
:10390000679557954795005DFC010293CF014115DE
:1039100051056105710569F70E94121F8AE391E064
:103920000E94121FA1960FB6F894DEBF0FBECDBF46
:10393000DF91CF911F910F9108950F931F93CF9314
:10394000DF9306EB14E0CBEED4E08C899D890097E1
:1039500009F444C001969D8B8C8BC8010F96E885B5
:10396000F9852081213059F030F0223061F0233088
:1039700079F4BE010BC0B801635E7F4F07C0B80188
:103980006B5D7F4F03C0B801635D7F4F0E94E81BF2
:103990002FB7F894F801FF9684819581A681B781AD
:1039A0004081518162817381840F951FA61FB71FCB
:1039B00080839183A283B3832FBF80819181A28171
:1039C000B3818A2F90E09B8B8A8BE885F985808173
:1039D000843021F41D8A1C8A0E94531C025B1F4FF5
:1039E000C25BDF4F86E00A38180709F0AECF80913E
:1039F000AC029091AD02ADE7B1E020E030E085305F
:103A000091052CF40196FC01EA55FD4F2083F90144
:103A1000EE0FFF1FE757FE4F408151814D935D939D
:103A20002F5F3F4F2630310551F79093AD028093C1
:103A3000AC02809100018F3F29F40E94DA1A81E0E4
:103A400080930101DF91CF911F910F9108951F92F3
:103A50000F920FB60F9211242F933F934F935F93C2
:103A60006F937F938F939F93AF93BF93EF93FF9346
:103A700089E092E00E94CF19FF91EF91BF91AF9141
:103A80009F918F917F916F915F914F913F912F9176
:103A90000F900FBE0F901F9018951F920F920FB6A8
:103AA0000F9211242F938F939F93EF93FF93E091A5
:103AB0001902F0911A028081E0911F02F091200218
:103AC00082FD12C09081809122028F5F8F732091BE
:103AD0002302821751F0E0912202F0E0E75FFD4FF0
:103AE000958F8093220201C08081FF91EF919F9179
:103AF0008F912F910F900FBE0F901F9018951F92CE
:103B00000F920FB60F9211242F933F934F935F9311
:103B10006F937F938F939F93AF93BF93EF93FF9395
:103B20008091B900887F883221F170F48031F1F002
:103B300030F4882309F472C08830C1F073C0883132
:103B4000C1F0803251F16EC0803409F44EC028F4C7
:103B5000803319F1883321F165C08035D1F1883582
:103B600009F44FC0883409F05DC05AC08091BA0191
:103B700011C09091B9018091B801981708F050C018
:103B8000E091B90181E08E0F8093B901F0E0E85631
:103B9000FE4F80818093BB002EC08093970140C070
:103BA0008093970185EC8093BC008091960180936F
:103BB00095011092960180919501833019F40E942D
:103BC0009F1A30C080919501813061F50E94AF1A33
:103BD00029C0E091B90181E08E0F8093B9018091F5
:103BE000BB00F0E0E856FE4F80839091B9018091D0
:103BF000B801981710F485EC01C085E88093BC00EB
:103C000011C0E091B90181E08E0F8093B9018091DC
:103C1000BB00F0E0E856FE4F808302C0109297018F
:103C20000E94C01AFF91EF91BF91AF919F918F9128
:103C30007F916F915F914F913F912F910F900FBEA8
:103C40000F901F90189578941F920F920FB60F92B5
:103C500011242F933F934F935F936F937F938F9391
:103C60009F93AF93BF93EF93FF9310926E00E091F9
:103C7000CE01F091CF010995F8948091CD01882370
:103C800011F016BCA99A80916E00826080936E003C
:103C9000FF91EF91BF91AF919F918F917F916F9124
:103CA0005F914F913F912F910F900FBE0F901F90FA
:103CB00018951F920F920FB60F9211242F933F93D6
:103CC0004F935F936F937F938F939F93AF93BF9324
:103CD000EF93FF9380910101882341F080917A0056
:103CE000806480937A001092010111C0E09100017C
:103CF0008091780090917900EE0FFF0BE757FE4F0F
:103D0000918380830E94DA1A81E080930101FF9100
:103D1000EF91BF91AF919F918F917F916F915F9143
:103D20004F913F912F910F900FBE0F901F901895BC
:103D30001F920F920FB60F9211242F933F938F93E0
:103D40009F93AF93BF93EF93FF9380917C0191E09A
:103D5000892780937C01882359F18091AE04E82F54
:103D6000F0E0EE0FFF1FE255FD4F208131818F5FA4
:103D70008093AE04811118C08091B004982790936D
:103D8000B0048091B2049091B304A091B404B091B6
:103D9000B5040196A11DB11D8093B2049093B304A4
:103DA000A093B404B093B5043093890020938800A5
:103DB000FF91EF91BF91AF919F918F913F912F9183
:103DC0000F900FBE0F901F901895CF92DF92EF9239
:103DD000FF920F931F93CF93DF936C017A018B01B6
:103DE000C0E0D0E0CE15DF0589F0D8016D918D01DE
:103DF000D601ED91FC910190F081E02DC60109956D
:103E0000892B11F47E0102C02196ECCFC701DF910E
:103E1000CF911F910F91FF90EF90DF90CF90089579
:103E20000E948725009769F0FC0101900020E9F7C6
:103E30003197AF01481B590BBC0189E092E00C940B
:103E4000E51E80E090E00895CF93DF930E94121F5B
:103E5000EC018AE391E00E94121F8C0F9D1FDF91FD
:103E6000CF9108952F923F924F925F926F927F92DF
:103E70009F92AF92BF92CF92DF92EF92FF920F93F9
:103E80001F93CF93DF93CDB7DEB7A6970FB6F89405
:103E9000DEBF0FBECDBF982EB62EC82ED12C1F92DE
:103EA0006F931F928F938AE591E09F938F939E016A
:103EB0002F5F3F4F39013F932F930E948C25C30101
:103EC0000E94121FEFEFF4E00FB6F894DEBF0FBEB2
:103ED000CDBF41E050E080E090E0208131812115AC
:103EE000310561F04217530710F4A9018C010196C6
:103EF000E25BFF4F8630910581F701C08C012EE413
:103F0000209FC001219F900D1124DC01AA54BB4FBA
:103F10007D011F930F9384E791E09F938F937F928E
:103F20006F920E948C25C3010E94241FF701E75B5A
:103F3000FF4F21E030E031832083B4E0BB9EF001ED
:103F40001124E155FF4C85919591A591B491CD0136
:103F5000AA27BB274FB7F894092E000CAA0BBB0B5E
:103F60005DE0880F991FAA1FBB1F5A95D1F78827BC
:103F70009927F70186839783A087B1874FBFE45BBA
:103F8000FF4FB08231968FEF80838CE08C9DF001E3
:103F90008D9DF00D1124E752FE4FE0810F900F90A0
:103FA0000F900F900F900F90E03188F4F0E0EE0F3B
:103FB000FF1FEE5EFE4F80819181D7011E961C92FD
:103FC0001E921D971B969C938E931A9708C0D7013B
:103FD0001E963C932E931D97EF701C96EC938CE0ED
:103FE0008C9DF0018D9DF00D1124E752FE4F27812D
:103FF00030853AA329A3858196819CA38BA3238036
:10400000348021813281C901A0E0B0E09C01AD0182
:1040100084E056954795379527958A95D1F78EE494
:10402000809F6001819FD00C112486010A541B4F90
:104030003EA32DA3D80157963C932E9356971F96D7
:10404000AD90BC9050972501612C712CC301B20139
:104050000E947125D80158966D937D938D939C9302
:104060005B97C101A0E0B0E09C01AD0194E05695E2
:104070004795379527959A95D1F7D8015F963C9348
:104080002E935E97C301B2010E947125D8019096CC
:104090006D937D938D939C9393972BA13CA1C90124
:1040A000A0E0B0E09C01AD0164E0569547953795DE
:1040B00027956A95D1F7D80197963C932E939697BA
:1040C000C301B2010E947125D80198966D937D932A
:1040D0008D939C939B9729A13AA1C901A0E0B0E0E0
:1040E0009C01AD0174E056954795379527957A95D3
:1040F000D1F7D8019F963C932E939E97C301B201AE
:104100000E947125D801D0966D937D938D939C93D9
:10411000D3978FEF9FE0D7969C938E93D697950178
:10412000AFEFBFE00E946225D801D8966D937D93D2
:104130008D939C93DB9782859185D7015C969C93A8
:104140005C9794968C93949781E0D4968C93D497B3
:10415000DC961C92DC9783859C968C93F801E55B3A
:10416000FF4F9082F601EB53FB4F7F01D80152962F
:104170001C921E925197EDA1FEA15496FC93EE93D2
:104180005397D701D0964D905D906D907C90D397CA
:10419000F801648D862F90E0A0E0B0E0DC01992763
:1041A0008827BC01CD016419750986099709208DFE
:1041B000318D428D538D0E940E25D701D4962D93BB
:1041C0003D934D935C93D797C60185539B4FF80160
:1041D00096AF85AFA6960FB6F894DEBF0FBECDBFE3
:1041E000DF91CF911F910F91FF90EF90DF90CF90D3
:1041F000BF90AF909F907F906F905F904F903F9057
:104200002F9008951F920F920FB60F9211242F93A3
:104210003F938F939F93AF93BF9380918F0690911D
:104220009006A0919106B091920630918E0623E0FF
:10423000230F2D3720F40196A11DB11D05C026E8DE
:10424000230F0296A11DB11D20938E0680938F0629
:1042500090939006A0939106B093920680918A065F
:1042600090918B06A0918C06B0918D060196A11DB0
:10427000B11D80938A0690938B06A0938C06B09311
:104280008D06BF91AF919F918F913F912F910F908C
:104290000FBE0F901F901895CF93DF93CDB7DEB769
:1042A00060970FB6F894DEBF0FBECDBF789484B58B
:1042B000826084BD84B5816084BD85B5826085BD22
:1042C00085B5816085BD80916E00816080936E00B0
:1042D00010928100809181008260809381008091A2
:1042E0008100816080938100809180008160809353
:1042F00080008091B10084608093B1008091B00013
:1043000081608093B00080917A00846080937A000D
:1043100080917A00826080937A0080917A00816037
:1043200080937A0080917A00806880937A0010925E
:10433000C10062E082E00E94631A62E084E00E94B1
:10434000631A62E087E00E94631A62E088E00E94DC
:10435000631A0E94091BE0911902F0911A0282E08F
:104360008083E0911502F09116021082E09117020D
:10437000F091180280E1808310922102E0911D02E9
:10438000F0911E0286E08083E0911B02F0911C02F6
:10439000808180618083E0911B02F0911C0280810A
:1043A00088608083E0911B02F0911C02808180680C
:1043B0008083E0911B02F0911C0280818F7D8083BD
:1043C0008DE391E00E94241F88E0E6E0F1E0AAED91
:1043D000B1E001900D928A95E1F780E58093E201CA
:1043E0008093E3011092E4018CE0E9EDF1E0A5EEA9
:1043F000B1E001900D928A95E1F78CE0E9EDF1E0F2
:10440000A1EFB1E001900D928A95E1F78CE0E9ED22
:10441000F1E0ADEFB1E001900D928A95E1F7DD2476
:10442000D394D092D9011F92DF921F921F92E3E49E
:10443000EE2EE1E0FE2EFF92EF928E010F5F1F4FF6
:104440001F930F930E948C25C8010E94241F81E1B5
:104450008093E5011F928F931F92DF92FF92EF925C
:104460001F930F930E948C25C8010E94241F8091E6
:104470007A00886080937A0080917A0084608093CB
:104480007A0080917A008D7F80937A0080917A0003
:104490008E7F80937A000E94091B84B58093D70198
:1044A00085B58093D60187B58093D50180916E0044
:1044B0008093D4018DE99CE19093CF018093CE014C
:1044C0001092CD010FB6F894DEBF0FBECDBF80E0D5
:1044D00090E040E950ED63E070E0FC01EC55FF4FE7
:1044E000E491EE2389F06A017B01082E04C0F69462
:1044F000E794D794C7940A94D2F7A1E0CA16DA06D3
:10450000E104F10408F48BC101968B30910529F781
:1045100080916E00826080936E0084B58093D30199
:1045200085B58093D20187B58093D10180916E00CB
:104530008093D001809180008093BE0180918100A2
:104540008093BD0180918800909189008093BC0187
:1045500080916F008093BB0161E089E00E94631A43
:104560001092C80198E19093C90182E08093CA013A
:10457000909381008093800088EE91E0A0E0B0E00D
:1045800011E01093C5019093C4018093C3019093EF
:1045900087008093860089E18093810061E089E053
:1045A0000E94631A909180008091CA01892B8068D3
:1045B000809380002091C3013091C401A4EFB0E04A
:1045C0000E946225DC01CB015AE0B695A79597952C
:1045D00087955A95D1F790938900809388009091A0
:1045E000C5018091C901892B8093810010936F00D0
:1045F000809180008093C201809181008093C101ED
:1046000080918800909189008093C00180916F0013
:104610008093BF01259ADD24D39463E2862E912CEA
:10462000A12CB12C72E0C72E9091AF048091AE0402
:10463000981306C09091B1048091B004981356C0AD
:104640002D9A06EB14E0E12CF12CD801DD96ED91CA
:10465000FC91DE978081843059F116968D919D9161
:104660000D90BC91A02DF801428153816481758128
:10467000840F951FA61FB71F82839383A483B583DE
:104680000190F081E02D0480F581E02DC8010995AD
:10469000F801E95BFF4F20813181482F4203C001BF
:1046A000439F900D1124892F990F990BE80EF91E45
:1046B000025B1F4F86E00A38180739F62D98809163
:1046C000AF04E82FF0E0EE0FFF1FE255FD4F94EF2F
:1046D000E90EF11CF182E0828F5F8093AF048111BB
:1046E00005C08091B1048D258093B10489E092E0EA
:1046F0000E94B919181619060CF08EC089E092E0D4
:104700000E949719833609F46DC014F58E3409F4AC
:1047100078C064F4833409F471C08D3409F474C032
:10472000823409F077C040E063E470C0883509F452
:1047300062C034F4863509F06DC040E061E466C0C3
:104740008A3509F455C0823609F064C063E447C075
:10475000813731F1BCF48D3609F448C08E3609F446
:1047600043C0853609F056C0C092D8010E9400258A
:10477000A50194010E940E25605D7F4F8F4F9F4FD2
:1047800082E029C08737D1F02CF4863709F042C087
:1047900061E425C0883711F18A37E1F56CE31FC069
:1047A0001092D8010E940025A50194010E940E25B7
:1047B000605D7F4F8F4F9F4F80E00DC0D092D8013A
:1047C0000E940025A50194010E940E25605D7F4F87
:1047D0008F4F9F4F81E00E94321F1CC06EE380917B
:1047E000D801F9CF60E4FBCF65E4F9CF67E4F7CFF8
:1047F00040E06CE30BC041E06EE308C041E060E4E0
:1048000005C041E065E402C041E067E48091D80161
:104810000E94361C0E94531C0E94591A05CFA1E029
:10482000B0E002C0AA0FBB1F8A95E2F7A70196016C
:104830000E943825DC01CB0124E0B595A79597951A
:1048400087952A95D1F79093CC018093CB01109254
:104850006E0082E084BDE5BDCA94C7BC59CE089500
:10486000CF93DF9310920C0210920B0288EE93E02C
:10487000A0E0B0E080930D0290930E02A0930F028F
:10488000B093100282E291E090930A0280930902B1
:1048900085EC90E0909316028093150284EC90E0F2
:1048A000909318028093170280EC90E090931A0284
:1048B0008093190281EC90E090931C0280931B027C
:1048C00082EC90E090931E0280931D0286EC90E0B3
:1048D0009093200280931F021092220210922302D2
:1048E00010922402109225028FEF9FEF9093AD0259
:1048F0008093AC021092AE041092AF041092B004F8
:104900001092B104A6EBB4E0EBEEF4E064E371E0E6
:1049100081E090E051E042E033E024E011967C93A6
:104920006E93EF01A99718821E969C938E931D9704
:1049300050969C938E931F97299618822896588399
:104940002896488328963883208327961882A25B6E
:10495000BF4FE25BFF4FC6E0AA38BC07F9F6DF9114
:10496000CF9108958F929F92AF92BF92CF92DF9294
:10497000EF92FF92CF93DF93EC01688179818A8176
:104980009B81611571058105910521F464E279ED42
:104990008BE597E02DE133EF41E050E00E940E25DA
:1049A00049015A019B01AC01A7EAB1E40E942D25FF
:1049B0006B017C01ACEEB4EFA50194010E943B2594
:1049C000DC01CB018C0D9D1DAE1DBF1DB7FF03C0CB
:1049D0000197A109B04888839983AA83BB83BC014E
:1049E000CD019F77DF91CF91FF90EF90DF90CF9037
:1049F000BF90AF909F908F9008950E94B224089529
:104A000082E091E00E94B2240895609302017093C5
:104A1000030180930401909305010895052E97FBEF
:104A20001EF400940E94252557FD07D00E944025C2
:104A300007FC03D04EF40C942525509540953095F5
:104A400021953F4F4F4F5F4F0895909580957095FA
:104A500061957F4F8F4F9F4F08950E946225A59FBC
:104A6000900DB49F900DA49F800D911D1124089569
:104A7000B7FF0C942D250E942D25821B930B0895C2
:104A8000A1E21A2EAA1BBB1BFD010DC0AA1FBB1F52
:104A9000EE1FFF1FA217B307E407F50720F0A21BC4
:104AA000B30BE40BF50B661F771F881F991F1A9431
:104AB00069F760957095809590959B01AC01BD015B
:104AC000CF010895A29FB001B39FC001A39F700DB5
:104AD000811D1124911DB29F700D811D1124911D06
:104AE0000895DB018F939F930E942D25BF91AF9175
:104AF000A29F800D911DA39F900DB29F900D112438
:104B00000895EE0FFF1F0590F491E02D099481E0C8
:104B100090E0F8940C946428AEE0B0E0E2E9F5E2AD
:104B20000C943B280D891E8986E08C831A830983A7
:104B30008FEF9FE79E838D83AE01475E5F4F6F8946
:104B4000788DCE0101960E94AF252F813885F8011E
:104B5000E20FF31F10822E96E4E00C945728ACE08D
:104B6000B0E0E5EBF5E20C942D287C016B018A01A5
:104B7000FC0117821682838181FFBDC1CE0101969F
:104B80004C01F7019381F60193FD859193FF81918B
:104B90006F01882309F4ABC1853239F493FD859107
:104BA00093FF81916F01853229F4B70190E00E9453
:104BB0009727E7CF512C312C20E02032A0F48B3204
:104BC00069F030F4803259F0833269F420612CC0EE
:104BD0008D3239F0803339F4216026C022602460A0
:104BE00023C0286021C027FD27C030ED380F3A30A0
:104BF00078F426FF06C0FAE05F9E300D1124532E94
:104C000013C08AE0389E300D1124332E20620CC070
:104C10008E3221F426FD6BC1206406C08C3611F45F
:104C2000206802C0883641F4F60193FD859193FF18
:104C300081916F018111C1CF982F9F7D9554933041
:104C400028F40C5F1F4FFFE3F9830DC0833631F06A
:104C5000833771F0833509F05BC022C0F801808191
:104C600089830E5F1F4F44244394512C540115C077
:104C70003801F2E06F0E711CF801A080B18026FFB0
:104C800003C0652D70E002C06FEF7FEFC5012C8778
:104C90000E948C272C0183012C852F77222E17C090
:104CA0003801F2E06F0E711CF801A080B18026FF80
:104CB00003C0652D70E002C06FEF7FEFC5012C8748
:104CC0000E9481272C012C852068222E830123FC41
:104CD0001BC0832D90E048165906B0F4B70180E25E
:104CE00090E00E9497273A94F4CFF50127FC859134
:104CF00027FE81915F01B70190E00E949727311054
:104D00003A94F1E04F1A51084114510471F7E5C08B
:104D1000843611F0893639F5F80127FF07C0608124
:104D20007181828193810C5F1F4F08C06081718106
:104D3000072E000C880B990B0E5F1F4F2F76722EDB
:104D400097FF09C090958095709561957F4F8F4F23
:104D50009F4F2068722E2AE030E0A4010E94CF27E6
:104D6000A82EA81844C0853729F42F7EB22E2AE039
:104D700030E025C0F22FF97FBF2E8F36C1F018F436
:104D8000883579F0B4C0803719F0883721F0AFC08A
:104D90002F2F2061B22EB4FE0DC08B2D8460B82E53
:104DA00009C024FF0AC09F2F9660B92E06C028E0D4
:104DB00030E005C020E130E002C020E132E0F8013F
:104DC000B7FE07C060817181828193810C5F1F4FA4
:104DD00006C06081718180E090E00E5F1F4FA401EA
:104DE0000E94CF27A82EA818FB2DFF777F2E76FED6
:104DF0000BC0372D3E7FA51450F474FE0AC072FC20
:104E000008C0372D3E7E05C0BA2C372D03C0BA2C02
:104E100001C0B52C34FF0DC0FE01EA0DF11D8081EB
:104E2000803311F4397E09C032FF06C0B394B394C5
:104E300004C0832F867809F0B39433FD13C030FF8C
:104E400006C05A2CB31418F4530C5B18B32CB314CB
:104E500068F4B70180E290E03C870E949727B39402
:104E60003C85F5CFB31410F43B1801C0312C34FF4E
:104E700012C0B70180E390E03C870E9497273C85F1
:104E800032FF17C031FD03C088E790E002C088E51B
:104E900090E0B7010CC0832F867859F031FF02C033
:104EA0008BE201C080E237FD8DE2B70190E00E9405
:104EB0009727A51438F4B70180E390E00E94972764
:104EC0005A94F7CFAA94F401EA0DF11D8081B7013D
:104ED00090E00E949727A110F5CF332009F451CE1E
:104EE000B70180E290E00E9497273A94F6CFF7014D
:104EF0008681978102C08FEF9FEF2C96E2E10C94A0
:104F00004928FC010590615070400110D8F7809548
:104F100090958E0F9F1F0895FC0161507040019085
:104F20000110D8F7809590958E0F9F1F08950F93CD
:104F30001F93CF93DF93FB01238121FD03C08FEFEC
:104F40009FEF28C022FF16C04681578124813581FA
:104F50004217530744F4A081B1819D012F5F3F4F59
:104F6000318320838C93268137812F5F3F4F378396
:104F7000268310C0EB01092F182F0084F185E02D46
:104F80000995892BE1F68E819F8101969F838E83FF
:104F9000812F902FDF91CF911F910F910895FA01EA
:104FA000AA27283051F1203181F1E8946F936E7F68
:104FB0006E5F7F4F8F4F9F4FAF4FB1E03ED0B4E059
:104FC0003CD0670F781F891F9A1FA11D680F791F9A
:104FD0008A1F911DA11D6A0F711D811D911DA11DAB
:104FE00020D009F468943F912AE0269F11243019BB
:104FF000305D3193DEF6CF010895462F4770405D56
:105000004193B3E00FD0C9F7F6CF462F4F70405D04
:105010004A3318F0495D31FD4052419302D0A9F75F
:10502000EACFB4E0A6959795879577956795BA9559
:10503000C9F700976105710508959B01AC010A2E1F
:1050400006945795479537952795BA95C9F7620FF6
:10505000731F841F951FA01D08952F923F924F929A
:105060005F926F927F928F929F92AF92BF92CF92F8
:10507000DF92EF92FF920F931F93CF93DF93CDB701
:10508000DEB7CA1BDB0B0FB6F894DEBF0FBECDBF79
:1050900009942A88398848885F846E847D848C844A
:1050A0009B84AA84B984C884DF80EE80FD800C8153
:1050B0001B81AA81B981CE0FD11D0FB6F894DEBF36
:1050C0000FBECDBFED01089519E1C9E5D9E104C0D6
:1050D000FE010E9481252196CA35D107C9F7F894AF
:0250E000FFCF00
:1050E200FF0101000000C800640090016400311C4F
:1050F2002A1CAF28AF20AF18AF10AF08AF000000D6
:105102000000F019E51E8819371AB9199719AB1959
:1051120000000000751B5E1BCA1B0D0A0073746140
:1051220072740070676D206368616E67653A206310
:10513200682564202D3E202564006E6F7465206F03
:105142006E3A2063683D25642C206E6F74653D25A0
:0C51520064202000736C6F743A25640028
:107E0000112484B714BE81FFF0D085E080938100F7
:107E100082E08093C00088E18093C10086E0809377
:107E2000C20080E18093C4008EE0C9D0259A86E02C
:107E300020E33CEF91E0309385002093840096BBD3
:107E4000B09BFECF1D9AA8958150A9F7CC24DD24C4
:107E500088248394B5E0AB2EA1E19A2EF3E0BF2EE7
:107E6000A2D0813461F49FD0082FAFD0023811F036
:107E7000013811F484E001C083E08DD089C08234E0
:107E800011F484E103C0853419F485E0A6D080C0E4
:107E9000853579F488D0E82EFF2485D0082F10E0AE
:107EA000102F00270E291F29000F111F8ED06801E7
:107EB0006FC0863521F484E090D080E0DECF843638
:107EC00009F040C070D06FD0082F6DD080E0C81688
:107ED00080E7D80618F4F601B7BEE895C0E0D1E017
:107EE00062D089930C17E1F7F0E0CF16F0E7DF06D8
:107EF00018F0F601B7BEE89568D007B600FCFDCFD4
:107F0000A601A0E0B1E02C9130E011968C91119780
:107F100090E0982F8827822B932B1296FA010C0160
:107F200087BEE89511244E5F5F4FF1E0A038BF0790
:107F300051F7F601A7BEE89507B600FCFDCF97BE46
:107F4000E89526C08437B1F42ED02DD0F82E2BD052
:107F50003CD0F601EF2C8F010F5F1F4F84911BD097
:107F6000EA94F801C1F70894C11CD11CFA94CF0C13
:107F7000D11C0EC0853739F428D08EE10CD085E9AC
:107F80000AD08FE07ACF813511F488E018D01DD067
:107F900080E101D065CF982F8091C00085FFFCCF94
:107FA0009093C60008958091C00087FFFCCF809118
:107FB000C00084FD01C0A8958091C6000895E0E648
:107FC000F0E098E1908380830895EDDF803219F02E
:107FD00088E0F5DFFFCF84E1DECF1F93182FE3DFCA
:107FE0001150E9F7F2DF1F91089580E0E8DFEE27F6
:047FF000FF270994CA
:027FFE00040479
:0400000300007E007B
:00000001FF